:020000040800F2
:10000000C017002021020008EF300008B91F0008C7
:10001000ED3000088B030008BB330008000000002F
:10002000000000000000000000000000890100083E
:100030001D04000800000000CD010008F130000898
:100040003B0200083B0200083B0200083B0200089C
:100050003B0200083B0200083B0200083B0200088C
:100060003B0200083B0200083B0200083B0200087C
:100070003B0200083B0200083B0200083B0200086C
:100080003B0200083B0200083B0200083B0200085C
:100090003B0200088D0300083B0200083B020008F9
:1000A0003B0200083B0200083B0200083B0200083C
:1000B0003B020008793100083B020008BD1F000820
:1000C0003B020008C91F00083B0200083B02000871
:1000D0003B0200083B0200083B0200083B0200080C
:1000E0003B0200083B0200083B02000800F002F857
:1000F00000F03AF80AA090E8000C82448344AAF188
:100100000107DA4501D100F02FF8AFF2090EBAE885
:100110000F0013F0010F18BFFB1A43F0010318473B
:100120004443000064430000103A24BF78C878C1FB
:10013000FAD8520724BF30C830C144BF04680C60ED
:10014000704700000023002400250026103A28BF35
:1001500078C1FBD8520728BF30C148BF0B60704739
:100160001FB51FBD10B510BD00F0D6F81146FFF742
:10017000F7FF03F071F900F0F4F803B4FFF7F2FFB2
:1001800003BC00F0FBF80000224B19680868B0E8D7
:10019000F00F80F30988BFF36F8F4FF0000080F3FA
:1001A00011884EF00D0E70470000000006480068F0
:1001B000006880F3088862B661B6BFF34F8FBFF363
:1001C0006F8F00DF00BF00BF08ED00E0EFF3098094
:1001D000BFF36F8F0F4B1A6820E9F00F106008B55E
:1001E0004FF0500080F31188BFF34F8FBFF36F8F34
:1001F00003F050FC4FF0000080F31188BDE8084088
:1002000019680868B0E8F00F80F30988BFF36F8FB2
:10021000704700BF18000020EFF305807047000012
:100220000948804709480047FEE7FEE7FEE7FEE78A
:10023000FEE7FEE7FEE7FEE7FEE7FEE704480549C6
:10024000054A064B7047000067310008ED000008C2
:10025000C0110020C0170020C0130020C0130020D0
:1002600010B5203AC0F00B80B1E81850203AA0E851
:100270001850B1E81850A0E81850BFF4F5AF5FEA85
:10028000027C24BFB1E81850A0E8185044BF18C938
:1002900018C0BDE810405FEA827C24BF51F8043BDF
:1002A00040F8043B08BF7047D20728BF31F8023B33
:1002B00048BF11F8012B28BF20F8023B48BF00F8C7
:1002C000012B70474FF0000200B513469446964646
:1002D000203922BFA0E80C50A0E80C50B1F1200159
:1002E000BFF4F7AF090728BFA0E80C5048BF0CC007
:1002F0005DF804EB890028BF40F8042B08BF704765
:1003000048BF20F8022B11F0804F18BF00F8012BD6
:100310007047704770477047754600F02BF8AE463F
:1003200005006946534620F00700854618B020B501
:10033000FFF784FFBDE820404FF000064FF00007B4
:100340004FF000084FF0000B21F00701AC46ACE87D
:10035000C009ACE8C009ACE8C009ACE8C0098D46EA
:10036000704710B50446AFF300802046BDE810404A
:10037000FFF703BF004870476011002001491820B3
:10038000ABBEFEE7260002007047FEE7014800F022
:10039000BDB80000D402002000222021014800F056
:1003A000FFBB0000000C014000221021014800F0BA
:1003B000F7BB00000008014001221021014800F0B5
:1003C000EFBB00000008014010B5FFF7EDFFBDE8EE
:1003D000104000224FF40041014800F0E1BB000052
:1003E0000008014010B5FFF7E7FF0122BDE810400B
:1003F000D103014800F0D4BB0008014010B5064C01
:1004000000222021204600F0CBFB20460122BDE83F
:100410001040402100F0C4BB00080140704772B694
:10042000FEE7704730B590F82040012C05D0022C33
:1004300003D0416A41F480215DE00468002955D071
:100440002469A40754D04FF4D874056804EB011450
:100450002D5915F00405956005682D594ED0ED080D
:10046000556005682C5904F00204D4604FF4DA7426
:10047000056804EB01142D5905F00F051561056899
:100480002D59C5F30725956105682C59240C546135
:100490004FF4DC72046802EB0112A4581C7004686B
:1004A000A458240A5C700468A458240C9C70046846
:1004B000A258120EDA704FF4DE72046802EB0112D9
:1004C000A4581C710468A458240A5C710468A458D8
:1004D000240C9C710468A258120EDA71006881B174
:1004E000016941F020010161002030BDE468A8E706
:1004F000416A41F400114162012030BD6D0D15606B
:10050000AFE7C16841F02001C160EDE72DE9F05F80
:100510000546006800244669D0F804908768D0F842
:100520000CB0D0F810A0D0F81880F10748D0F90727
:1005300014D001218160B80703D5284600F0D8F90E
:100540000CE0780702D54FF4006407E0380702D5C5
:100550004FF4805402E0284600F0C9F9F80516D59A
:1005600029684FF480708860B80503D5284600F0EC
:10057000C1F90CE0780502D544F4005407E03805D1
:1005800002D544F4804402E0284600F0B2F9F803B2
:1005900016D529684FF480308860B80303D5284603
:1005A00000F0AAF90CE0780302D544F4004407E017
:1005B000380302D544F4803402E0284600F09BF969
:1005C000300707D55FEACB6004D52968102044F4D2
:1005D0000074C86070074FF0080707D55FEA0B701A
:1005E00004D52868C760284600F066F9B00706D52C
:1005F0002868C068800702D0284600F05FF97006BE
:1006000007D55FEACA6004D52968102044F48064E5
:100610000861B00607D55FEA0A7004D5286807614B
:10062000284600F061F9F00606D5286800698007C1
:1006300002D0284600F059F9B00308D55FEAC96036
:1006400005D5296810204860284600F04FF9F003CE
:1006500007D55FEA097004D528684760284600F08E
:100660004CF9300446D55FEA497040D5F00504D511
:100670005FEAC87001D044F00104B00504D55FEA18
:10068000887001D544F00204700504D55FEA487013
:1006900001D544F00404300529D518F0700F26D098
:1006A00008F07000402815D006DC102809D020285A
:1006B0000AD0302816D10AE050280ED0602811D177
:1006C0000EE044F008040DE044F010040AE044F0A9
:1006D000200407E044F0400404E044F0800401E01A
:1006E00044F480742868816921F07001816129686F
:1006F00004204860002C05D0686A204368622846C0
:10070000FFF78FFEBDE8F09F70B5040003D094F8AA
:10071000200010B104E0012070BD204600F082F8F6
:100720002068016841F00101016000F03FFA0546D0
:10073000052604E000F03AFA401B0A2811D8206888
:100740004068C007F6D02068016821F0020101600E
:1007500000F02CFA05460BE000F028FA401B0A28AE
:1007600006D9606A40F40030606284F82060D2E705
:10077000206840688007EFD4207E01282068016847
:100780003DD021F080010160607E01282068016871
:1007900038D021F040010160A07E01282068016866
:1007A00033D021F020010160E07E0128206801683B
:1007B0002ED041F010010160207F012820680168DF
:1007C00029D021F008010160607F012820680168BC
:1007D00024D021F004010160D4E902010843D4E9E6
:1007E0000412114308436168491E08432168C86127
:1007F00000206062012084F82000002070BD41F0DC
:100800008001C0E741F04001C5E741F02001CAE79F
:1008100021F01001CFE741F00801D4E741F00401D5
:10082000D9E7000010B586B0002100910191029136
:10083000039100681C49884233D11C48C16941F0CA
:100840000071C161C16901F000710491816941F0D9
:10085000080181618069164C00F0080004904FF493
:10086000807000906946204600F0AAF8601500905C
:1008700002200190032003906946204600F0A0F872
:100880000C48416821F4C04141F0E06141F48041ED
:10089000416000220521152000F0F4FD152000F034
:1008A000E3FD06B010BD00000064004000100240EF
:1008B000000C0140000001407047000010B5084BDB
:1008C000084A0021FFF7AEFD06480068A0F58060E9
:1008D000013804D1BDE81040014802F0B1BD10BD9F
:1008E0007800002020110020704770477047704743
:1008F00070477047704770477047704710B590F861
:1009000021100024022903D00421816301243DE049
:1009100001680A6822F00E020A6001680A6822F083
:1009200001020A601A4A0168914201D1012121E0C5
:10093000174A1432914201D110211BE0144A283287
:10094000914201D1891515E0114A3C32914201D101
:1009500089140FE00E4A5032914202D14FF4803197
:1009600008E00B4A6432914202D14FF4801101E059
:100970004FF08071064A083A5160012180F8211039
:10098000002180F82010416B01B18847204610BD3E
:100990000800024090F821007047000070B504463E
:1009A00000F004F90546601C02D0044800780444B5
:1009B00000F0FCF8401BA042FAD370BD08000020F4
:1009C0002DE9F84FDFF8B891002409F1040A0AF183
:1009D000040B23460F270BF1040EC9E00125A540A7
:1009E0002A40AA427DD1674ED1F804C0ACEB06087C
:1009F000B44532D014DCBCF1030F3AD009DCBCF1B1
:100A0000000F2AD0BCF1010F1CD0BCF1020F31D174
:100A10001DE0BCF1110F17D0BCF1120F2AD119E063
:100A2000B8F5881F19D006DCB8F5803F15D0B8F5A9
:100A3000801F1FD111E0B8F5001F0ED0B8F5041FBC
:100A400018D10AE0CB6815E0CB681B1D12E0CB681B
:100A500008330FE0CB680C330CE08B682BB1012B13
:100A60004FF0080303D0456104E0042302E0056170
:100A700000E00023FF2A01D8064601E000F1040649
:100A80004FEA840501D9A5F12005D6F8008007FAC0
:100A900005FC28EA0C0803FA05F548EA0508C6F83B
:100AA00000804D68ED0062D5374DAE6946F0010615
:100AB000AE61AD6924F0030605F001050095334DE4
:100AC00006EB050CDCF80850A607360F07FA06F807
:100AD00025EA0805DFF8B880404503D14FF000084B
:100AE00017E044E0DFF8AC80404502D14FF0010848
:100AF0000FE0DFF8A480404502D14FF0020808E083
:100B0000DFF89880404502D14FF0030801E04FF034
:100B1000040808FA06F848EA0508CCF808804D6889
:100B2000D9F80060ED034D4601D5164300E0964329
:100B30002E604D68DAF80060AD03554601D51643C6
:100B400000E096432E604D68DBF80060ED025D46E4
:100B500001D5164300E096432E604D68DEF8006034
:100B6000AD02754601D5164300E096432E60641C25
:100B70000D682A46E5407FF431AFBDE8F88F0000EC
:100B8000000401400000111000100240000001406C
:100B900000080140000C0140001001400014014019
:100BA0000AB1016170470904FBE700000148806851
:100BB0007047000008000020704770472DE9F0479B
:100BC000026800215368C66A90F83E4090F83D5094
:100BD000102C12D0402C10D0046C002C7DD0546905
:100BE000E443A6077AD4DE43B60577D4036C03B199
:100BF0009169BDE8F04701F08FBE976951694FF4E4
:100C00002A0CC9435FEAC1784FF02A4904D06645EF
:100C10002AD04E4528D010E0DE43B6050DD4C16A77
:100C2000614501D1012103E0C16A494501D1082193
:100C3000C162BDE8F04701F0D9BD0E0716D4DE430E
:100C4000B60513D4416CC9B21161416B09B1896A0F
:100C500029B9816B002907D0896A002904D000686E
:100C6000416841F400614160BDE8F0878E0706D419
:100C7000DE43B60503D4BDE8F04701F00BBDFE43EB
:100C8000526876074FEA02521DD4002AECDB0A06AE
:100C900008D4DA43520505D4490705D5BDE8F04725
:100CA00001F09CBC4907DFD4D9438905DCD4212D50
:100CB00005D0402CD8D1BDE8F04701F0DDBDBDE83E
:100CC000F04701F049BC002ACEDB4A060BD4DA43D8
:100CD000520508D4490708D501E00DE00EE0BDE853
:100CE000F04701F001BB4907BED4D9438905BBD405
:100CF000BDE8F04701F08FBA916970E7E10606D4CC
:100D0000D943890503D4BDE8F04701F029BE282165
:100D1000212D27D0292D25D0650655D4DD436D051D
:100D200052D4640752D590F83D30448D002C9BD0AE
:100D30001269446A2270426A521C4262428D521EFB
:100D40004285428D002A8FD12A2B8DD102685368AB
:100D500023F4806353602222026380F83D1000F088
:100D600023FB81E7250623D4DD436D0520D46407EA
:100D700020D590F83D30448D002CF2D0446A247880
:100D80001461426A521C4262428D521E4285428D5B
:100D9000002AE6D1292BE4D10268536823F480634A
:100DA00053602122026380F83D1000F0FEFA5BE7F9
:100DB0006107D6D4D9438905D3D4418D0029D0D039
:100DC000416A097811610AE06107CAD4D9438905EB
:100DD000C7D4418D0029C4D01169426A1170416A9B
:100DE000491C4162418D491E41853DE77047000025
:100DF00070B5040025D094F83D00002520B984F892
:100E00003C50204600F076FA242084F83D0020680B
:100E1000016821F0010101602068016841F400418E
:100E200001602068016821F40041016000F0F2FBDC
:100E30004D4A6168914201D84C4900E04C498842D2
:100E400001D2012070BD4B492368B0FBF1F15E680F
:100E500026F03F060E435E606368934206D94FF466
:100E6000967359434FF47A73B1FBF3F12368491C2D
:100E70001E6A26F03F06314319626168914210D81C
:100E80004900401EB0FBF1F2521CC2F30B02042ACF
:100E900001D2042022E0B0FBF1F0401CC0F30B00B3
:100EA0001CE0A268F2B301EBC10303EB0116431E81
:100EB000B3FBF6F35B1C43F480431B0549D092B3AC
:100EC00001EBC10202EB0111401EB0FBF1F0401C2E
:100ED000C0F30B0040F4804040F400402168CA6930
:100EE0004CF6FF739A431043C861D4E907100143DD
:100EF0002068026822F0C00211430160D4E90301B6
:100F000001432068826848F2FF339A4311438160AD
:100F1000D4E9050108432168CA6822F0FF021043A2
:100F2000C86001E00EE016E02068016841F00101B0
:100F300001602564202084F83D00256384F83E503C
:100F4000002070BD01EB4106431EB3FBF6F35B1CB2
:100F5000B3E70120C2E701EB4101401EB0FBF1F015
:100F6000401CC0F30B00B7E7A086010080841E0080
:100F700000093D0040420F00704770477047000075
:100F80002DE9F84F0025DDF82890984617468A4647
:100F900004460095FFF70AFE064694F83D00202817
:100FA0007AD11923012283492046009601F0ACFD35
:100FB0000028F5D194F83C0001286DD0012084F878
:100FC0003C0020680168C90703D1016841F00101B4
:100FD00001602068016821F400610160222084F82A
:100FE0003D00102084F83E0025646762A4F82A8042
:100FF000608D20857048E06233464A46514620465F
:1010000001F0E6F900287DD1208DDFF8B08120279E
:1010100068B1012814D00228206801681ED041F46C
:10102000806101602068416980690090B5E02068B6
:10103000416981690091016841F400710160ACE08F
:101040002068016821F48061016072B620684169FE
:1010500081690091016841F400710AE041F4006186
:10106000016072B62068416981690091016821F4CC
:101070008061016062B690E0032868D801280CD036
:1010800002284B464FF000024146204600960FD002
:1010900001F03AFDB0BB10E08AE0324649462046F6
:1010A00001F0B1FD70BB20680069616A08706BE0F7
:1010B00001F02AFD30BB72B634E02068016821F4EB
:1010C0008061016072B620680069616A0870606AB8
:1010D000401C6062208D401E2085608D401E608512
:1010E000374846F2A8110068B0FBF1F0C0EBC00031
:1010F00000EB80000090401E009008D020684069FE
:10110000C04300E029E040070CD50098F3E744F81D
:10111000305F6773A573206940F02000206162B6DC
:1011200025731AE02068016841F4007101602068AD
:101130000069616A0870606A401C6062218D491E06
:101140002185618D491E618562B621681AE03246AB
:101150004946204601F057FD10B10120BDE8F88F47
:1011600020680069616A0870606A401C6062218DB5
:10117000491E2185618D491E618521684A69D243D6
:1011800052070AD409690170606A401C6062208DB0
:10119000401E2085608D401E6085208D00287FF4D4
:1011A0006BAF84F83D7084F83E5084F83C50D5E72E
:1011B0000220D3E7020010000000FFFF040001003E
:1011C000140000202DE9F84F1F4690468A46044639
:1011D000DDF82890FFF7EAFC054694F83D0020284A
:1011E0007FD11923012240492046009501F08CFC53
:1011F000002876D194F83C00012872D0012084F8B0
:101200003C0020680168C90703D1016841F0010171
:1012100001602068016821F400610160212084F8E8
:101220003D00102084F83E0000262664C4F8248087
:101230006785608D20852D48E0622B464A465146E1
:10124000204601F03BF990B920684169806900901F
:1012500036E02A464946204601F008FD50B1206C90
:10126000042804D12068016841F400710160012064
:10127000BDE8F88F606A216800780861606A401CE8
:101280006062618D491E6185218D491E89B221856B
:1012900022685369DB435B070BD451B100781061BE
:1012A000606A401C6062608D401E6085208D401E1B
:1012B00020852A464946204601F000FC0028CED170
:1012C000208D0028C5D154F83D0B016841F4007110
:1012D0000160202004F81E09E67766770020C7E742
:1012E000FFE70220C4E70000020010000000FFFF3B
:1012F0007047704730B585B000210091019102918F
:101300000391254D0368254C122103222448AB424A
:101310001DD1A36943F00803A361A369039203F0FD
:1013200008030493C023CDE900316946FFF748FB69
:10133000E06940F40010E061E069002200F4001070
:10134000049005211F2000F09DF81F2020E0154D7E
:10135000AB421FD1A36943F00803A361A3690392C1
:1013600003F0080304934FF44063CDE9003169466C
:10137000FFF726FBE06940F48000E061E0690022AD
:1013800000F4800004900521212000F07BF821204A
:1013900000F06AF805B030BD005400400010024073
:1013A000000C0140005800407047704702488168B7
:1013B000027811448160704708000020074810B58A
:1013C000016841F010010160032000F07BF80F205C
:1013D00000F006F800F024F8002010BD00200240C4
:1013E00070B50D4D04464FF47A712878B1FBF0F0DA
:1013F0000A490968B1FBF0F000F0E2FA48B9102C94
:1014000007D200222146501E00F03CF800206C60FC
:1014100070BD012070BD00000800002014000020F5
:101420000F4808B5816941F001018161816901F0CE
:1014300001010091C16941F08051C161C069002280
:1014400000F0805000900F21901E00F01BF805481E
:10145000416821F0E06141F00071416008BD000089
:101460000010024000000140002809DB00F01F02CC
:10147000012191404009800000F1E020C0F80011F6
:1014800070470000F0B40E4B1B680C46C3F30223F8
:10149000C3F10705042D00D90425191D072901D220
:1014A000002300E0DB1E012606FA05F1491E21405B
:1014B00099409E40761E16403143F0BC01F07EBF3D
:1014C0000CED00E0064900F0070208684FF6FF0344
:1014D000184040EA0220034A1043086070470000A9
:1014E0000CED00E00000FA052DE9F0470F4605007D
:1014F00061D0434E306800F00700B84209D230682E
:1015000020F0070038433060306800F00700B84230
:1015100051D128683B4C810712D5400703D560683C
:1015200040F4E06060602878000703D5606840F40C
:10153000605060606068A96820F0F0000843606057
:101540002878C00728D06868012810D021680228B0
:1015500010D0890700292EDA616821F003010143C8
:101560006160FFF723FB804641F288390DE0216876
:101570008903EFE78901EDE7FFF718FBA0EB08010E
:10158000494502D90320BDE8F0876068696800F02A
:101590000C00B0EB810FEFD1306800F00700B842CB
:1015A0000BD9306820F0070038433060306800F015
:1015B0000700B84201D00120E5E72878400705D5AB
:1015C0006068E96820F4E0600843606028780007FC
:1015D00006D56068296920F4605040EAC100606067
:1015E00000F028F86168084AC1F30311515CC84053
:1015F0000649086006480068FFF7F2FE0020C2E7CF
:101600000020024000100240344400081400002072
:101610000C0000200448054900684968044AC1F3E9
:101620000221515CC84070471400002000100240A5
:101630004444000812A185B00FC98DE80F0014A022
:10164000144A006804905168134801F00C03042BFD
:1016500010D0082B0ED1C1F38343C9031DF803003A
:101660000AD5516804AAC1F34041515C0A4A50436B
:10167000B0FBF1F005B0704708494843FAE70000B5
:1016800002030405060708090A0B0C0D0E0F1010C3
:10169000010200000010024000127A0000093D0023
:1016A0002DE9F84F040070D02078C04DC00749D014
:1016B0006868C0F38100012807D06868C0F3810022
:1016C000022809D16868C00306D52868800339D587
:1016D00060680028E7D035E06068B0F5803F0BD047
:1016E00010B1B0F5A02F11D0286820F48030286008
:1016F000286820F4802002E0286840F480302860C8
:10170000606890B1FFF752FA06460AE0286840F494
:1017100080202860F0E700BFFFF748FA801B6428AC
:1017200073D828688003F7D50CE0FFF73FFA064628
:1017300005E000BFFFF73AFA801B6428F0D828685C
:101740008003F7D420789A4E80074FF001094FF0BC
:10175000000839D5686810F00C0F07D06868C0F32E
:101760008100022809D16868C00306D42868800770
:1017700014D52069012808D110E02069B0B1C6F85D
:101780000090FFF713FA074605E00AE1FFF70EFAAB
:10179000C01B0228C4D828688007F7D5286861696B
:1017A00020F0F80040EAC10028600DE0C6F8008093
:1017B000FFF7FCF9074604E0FFF7F8F9C01B022821
:1017C00023D828688007F7D4207800072CD57948DB
:1017D000A169D9B1C0F80090FFF7E8F9074604E025
:1017E000FFF7E4F9C01B02280FD8686A8007F7D515
:1017F00071484FF4FA510068B0FBF1F0009000BF5F
:101800000098411E0091FAD20EE080E0C0F80080FE
:10181000FFF7CCF9074604E0FFF7C8F9C01B022820
:1018200075D8686A8007F7D42078400760D5E869E2
:101830000027C00008D4E86940F08050E861E869FA
:10184000012700F0805000905C480168C90513D45E
:101850000168834641F480710160FFF7A7F9824671
:1018600006E000BFFFF7A2F9A0EB0A0064284ED8FB
:10187000DBF80000C005F5D5E06801280AD008B102
:10188000052813D0286A20F001002862286A20F079
:10189000040002E0286A40F001002862E06841F29A
:1018A000883B98B1FFF782F982460BE0286A40F046
:1018B00004002862EEE700BFFFF778F9A0EB0A0109
:1018C00059455AD8286A8007F6D50CE0FFF76EF91B
:1018D000824605E0FFF76AF9A0EB0A0159454CD8AA
:1018E000286A8007F6D41FB1E86920F08050E861CB
:1018F000E06988B36968C1F38101022944D00228F4
:10190000C6F8608004D0FFF751F9044638E034E0AF
:10191000FFF74CF9074604E0FFF748F9C01B02281F
:101920002BD828688001F7D4206AB0F5803F05D114
:101930006868A16820F4003008436860D4E90801B1
:101940000843696821F4741108436860C6F8609020
:10195000FFF72CF9044606E025E000BFFFF726F963
:10196000001B022809D828688001F7D51BE000BFBA
:10197000FFF71CF9001B022802D90320BDE8F88FED
:1019800028688001F4D40EE00128F7D06868226A44
:1019900000F48031914204D1616A00F470108842F1
:1019A00001D00120EAE70020E8E700000010024033
:1019B00000004242800442421400002000700040B7
:1019C00010B5401EB0F1807F01D3012010BD4FF053
:1019D000E02460610F21601701F0F0FC0020A0619D
:1019E00007202061002010BD7047704770B590F847
:1019F0003C20012A26D0012480F83C40022280F8B5
:101A00003D2003685A689D6822F070060A683243D8
:101A10005A600D4B02689A4208D0B2F1804F05D04F
:101A20000A4B9A4202D00A4B9A4204D1496825F0E7
:101A300080031943916080F83D40002180F83C10FC
:101A4000084670BD022070BD002C0140000400401B
:101A50000008004010B5040003D094F83D0010B118
:101A600007E0012010BD002084F83C00204600F073
:101A70001FF8022084F83D00211D206801F082FB40
:101A8000012084F8460084F83E0084F83F0084F882
:101A9000400084F8410084F8420084F8430084F850
:101AA000440084F8450084F83D00002010BD00008B
:101AB00008B500680B49884212D10B48C16941F052
:101AC0000201C161C069002200F0020000900521FE
:101AD0001D20FFF7D7FCBDE808401D20FFF7C4BC60
:101AE00008BD0000000400400010024090F83D10C6
:101AF000012901D001207047022180F83D100068C3
:101B00000B49884208D0B0F1804F05D0094988427E
:101B100002D00949884204D1816801F007010629F1
:101B200003D0016841F0010101600020704700000E
:101B3000002C0140000400400008004070B504463D
:101B400090F83C00012817D0012584F83C50022071
:101B500084F83D002068826822F0770222F47F42F8
:101B600082600868502830D00DDC20284DD005DC7C
:101B700098B310283BD148E0022070BD302844D0F3
:101B8000402834D139E0602828D0702806D0B0F53C
:101B9000805F2CD0B0F5005F29D10AE0CB68D1E995
:101BA0000121206801F031FB2068816841F0770154
:101BB00009E0CB68D1E90121206801F026FB20680B
:101BC000816841F48041816011E0CA6849682068F9
:101BD00001F0D0FB5021206807E016E0CA68496890
:101BE000206801F0D8FB6021206801F018FB84F820
:101BF0003D50002084F83C0070BDCA6849682068E8
:101C000001F0B8FB40212068EFE72268014610464A
:101C1000EBE7704770B50446006801694FF00005B6
:101C2000C943890715D4C168C943890711D4E91E7E
:101C3000016101202077206880698007204602D05A
:101C4000FFF7E7FF04E000F0D3F8204600F062F968
:101C5000257720680169C943490717D4C168C9437A
:101C6000490713D46FF00401016102202077206836
:101C7000806910F4407F204602D0FFF7CAFF04E0DD
:101C800000F0B6F8204600F045F925772068016994
:101C9000C943090716D4C168C943090712D46FF0B4
:101CA00008010161042020772068C0698007204670
:101CB00002D0FFF7AEFF04E000F09AF8204600F0F3
:101CC00029F9257720680169C943C90617D4C16875
:101CD000C943C90613D46FF01001016108202077B1
:101CE0002068C06910F4407F204602D0FFF791FFC2
:101CF00004E000F07DF8204600F00CF9257720681C
:101D00000169C943C90708D1C168C943C90704D1DA
:101D1000891E0161204600F04DF920680169C94320
:101D2000090609D4C168C943090605D46FF08001CA
:101D300001612046FFF758FE20680169C943490642
:101D400009D4C168C943490605D46FF04001016157
:101D5000204600F030F920680169C94389060BD498
:101D6000C168C943890607D46FF02001016120468C
:101D7000BDE87040FFF739BE70BD000000B585B00A
:101D8000002100910191029103910068134988425A
:101D900021D11348816941F0080181618069694658
:101DA00000F00800049010200090022001900390A1
:101DB0000C48FEF705FE0C48416821F4406141F0F3
:101DC000E06141F4006141600848FFF78FFE0021A7
:101DD000064800F0A1F805B000BD00000004004076
:101DE00000100240000C014000000140A40300204C
:101DF000704770B5044690F83C000D4601280AD0A3
:101E0000012084F83C0042B1042A18D0082A2AD0C4
:101E10000C2A4DD139E0022070BD206801F008FA8B
:101E20002068816941F0080181612068816921F0A1
:101E300004018161206881692A69114311E02068E9
:101E400001F01EFA2068816941F400618161206817
:101E5000816921F480618161206881692A6941EA90
:101E60000221816124E0206801F036FA2068C1690E
:101E700041F00801C1612068C16921F00401C1611C
:101E80002068C1692A69114311E0206801F050FA05
:101E90002068C16941F40061C1612068C16921F411
:101EA0008061C1612068C1692A6941EA0221C1617A
:101EB000002084F83C0070BD10B5040003D094F8F5
:101EC0003D0010B107E0012010BD002084F83C0067
:101ED000204600F01EF8022084F83D00211D2068F5
:101EE00001F050F9012084F8460084F83E0084F89F
:101EF0003F0084F8400084F8410084F8420084F8F0
:101F0000430084F8440084F8450084F83D00002034
:101F100010BD70477047000010B50446022249B159
:101F200004290ED0082913D094F84100012816D0B6
:101F3000012010BD94F83E000128F9D184F83E201C
:101F40000FE094F83F000128F2D184F83F2008E028
:101F500094F840000128EBD184F8402001E084F897
:101F600041200122206801F043F90F49206888428E
:101F700003D1426C42F4004242642068884208D097
:101F8000B0F1804F05D00949884202D00849884203
:101F900004D1816801F00701062903D0016841F0EE
:101FA00001010160002010BD002C01400004004030
:101FB0000008004070477047FEE700000148FEF748
:101FC000FDBD0000FC0200200148FEF7F7BD000047
:101FD0005003002038B5406A002190F83D202B4B7B
:101FE00046F2A8141B68B3FBF4F3C3EBC30303EB83
:101FF000830300933BB15B1E009303681B689B0542
:1020000005D5009BF6E7036C43F020030364436BA4
:1020100003B19962836B03B1996203681C6824F46D
:1020200080641C604185436B03B15963836B03B1CA
:10203000596303681C6824F001041C6090F83D405B
:102040002023602C0BD0282434EA02020FD080F821
:102050003D3080F83E1000BFFEF7C8FE38BD80F866
:102060003D3080F83E100164FEF7A6FD38BD0268E1
:10207000136843F0010313600268136843F480633C
:102080001360016380F83D40E6E700001400002083
:1020900070B5044690F83D0094F83E10102901D028
:1020A000402906D1222804D121680A6822F400625E
:1020B0000A60282131EA00024FF000054FF02006A7
:1020C00026D021684968090505D4602803D084F822
:1020D0003D6084F83E50256320684168090537D586
:1020E000416821F400614160606B3D4990F8212016
:1020F000012A11D04163606BFEF700FC38B3206801
:10210000016821F00101016084F83D60606B1CE012
:10211000256384F83D10DFE7A06B4163A06BFEF7F9
:10212000EDFBA0B120684169C943490605D40069A7
:10213000616A0870606A401C60622068016821F072
:102140000101016084F83D60A06B416B884710E09D
:1021500094F83D10602910D04169C943490605D45F
:102160000069616A0870606A401C60622046FEF780
:102170003DFE206CC1071CD115E084F83D6025644C
:102180004169C943490605D40069616A0870606AFB
:10219000401C60622068016821F001010160204656
:1021A000FEF70AFDE5E7810703D4410701D40007E4
:1021B00004D52068416821F4E061416094F83D0055
:1021C000216C49070BD5282809D10648E062256310
:1021D00084F83D6084F83E502046FEF7CDFE70BD89
:1021E000D51F00080000FFFF01684A69D24352056D
:1021F0000FD46FF480624A61002140F8301F202222
:1022000042738173026942F004020261017301208A
:1022100070470020704710B5C26A438D0168042BD7
:1022200006D0438D032B08D0438D022B1DD012E026
:102230004A6822F480624A600CE04B6823F48063B1
:102240004B60042A06D0022A04D001680A6822F4EE
:1022500080620A6001680969426A1170416A491C1A
:102260004162418D491E418510BD012A30D0102A9E
:102270002ED0042A30D0022A2ED00A6842F40072EE
:102280000A6001680969426A1170416A491C416229
:10229000428D521E4285026812690A70416A491CC9
:1022A0004162418D491E418501684A6822F44072AD
:1022B0004A60202180F83D1090F83E200021402AFD
:1022C00080F83E100CD012210163FEF756FE10BDBF
:1022D0000A6822F48062D3E70A6842F48062CFE79A
:1022E0000163FFF705F810BD38B590F83D102229BD
:1022F00014D1418D032912D901680969426A11700C
:10230000416A491C4162418D491E4185418D032925
:1023100004D10068416821F48061416038BDC26A1F
:10232000022AFBD0012901D00029F7D1274946F222
:10233000A81300220968B1FBF3F101EB81010091C0
:1023400001682023009C641E009422D00C68A40520
:10235000F8D40C6824F480640C6001684C6824F4A0
:10236000E0644C6001680969446A2170416A491C53
:102370004162418D491E418580F83D3090F83E1004
:1023800080F83E2040291DD012210163FEF7F5FDA3
:1023900038BD046C44F0200404644C6824F4E06408
:1023A0004C6001680969446A2170416A491C4162B4
:1023B000418D491E418580F83D3080F83E20FEF772
:1023C00015FD38BD0263FEF793FF38BD14000020F1
:1023D0002DE9F84F0446C06A1E4693460D46216813
:1023E0000A6842F480620A60082807D0012805D0F4
:1023F00010F5803F02D0206B112804D120680168BD
:1024000041F4807101604FF001195B46002249469A
:102410002046009600F078FB4FF4007840B1206829
:102420000068C00501D5C4F840800320BDE8F88FDE
:102430002069DFF884A0B0F5804F0FD00620216816
:1024400000EAD51747F0F000086133465A460AF112
:102450000601204600F08CFB58BB03E0E8B240F0D8
:1024600001001CE02168E8B2086133465A46514633
:10247000204600F07DFBE0B9206841698169009148
:10248000016841F4807101605B46002249462046A4
:10249000009600F039FB0028C1D147F0F100216817
:1024A000086133465A465146204600F061FB002839
:1024B000BCD00120BAE7000002000100F8B50446D4
:1024C000C06A1E460D461746082807D0012805D0C9
:1024D00010F5803F02D0206B122804D120680168DB
:1024E00041F480710160134600224FF00111204633
:1024F000009600F009FB40B120680068C00502D5D5
:102500004FF4007020640320F8BD2069B0F5804FBF
:102510000ED00620216800EAD51040F0F0000861D6
:1025200033463A460B49204600F022FB78B902E0D8
:1025300005F0FE0000E0E8B2216808610549334675
:102540003A46891F204600F013FB0028DCD001200A
:10255000F8BD00000800010010B5C26A90F83D10F7
:1025600021290BD1418D51B1416A0268097811616D
:10257000416A491C4162418D491E418510BD20239D
:102580000021082A13D0202A11D012F5803F0ED046
:102590000268546824F4E06454601122026380F8F5
:1025A0003E1080F83D3000BFFEF7E8FC10BD026829
:1025B000546824F4E06454600268146844F40074BD
:1025C0001460016380F83D3090F83E2080F83E10A2
:1025D000402AE9D1FEF78DFE10BD000010B590F83D
:1025E0003D1090F83E30C26A048DB4B1212903D069
:1025F000402B11D122290FD1418DE1B390F83E102B
:10260000402942D0416A026809781161416A491C37
:102610004162418D491E418510BD2129E8D1202309
:102620000021082A13D0202A11D012F5803F0ED0A5
:102630000268546824F4E06454601122026380F854
:102640003E1080F83D3000BFFEF798FC10BD0268D8
:10265000546824F4E06454600268146844F400741C
:102660001460016380F83D3090F83E2080F83E1001
:10267000402AE9D100E002E0FEF73BFE10BD006811
:10268000416821F48061416010BDBDE8104000F058
:10269000F3B8000078B590F83E50C26A046B90F829
:1026A0003D6000230168222E73D1066D0EB9402DC6
:1026B0006FD0056D1DB90569B5F5404F1BD0458D2F
:1026C00095B3468D484D012E20D0448D022C4DD01F
:1026D0000C6844F480640C6001684C68240579D56A
:1026E000AA4273D0012A71D0082A6FD0102A6DD067
:1026F000202A6BD06EE04A698A6900920A6842F427
:1027000080720A60016D491C016578BDAA4214D12E
:102710000A6822F480620A6001684A68120504D5DA
:102720000A6822F4806217E0FFE74A698A6900922A
:102730000A6842F400720A6050E0082A10D0202A89
:102740000ED0122C0AD0042A03D0022A01D0102A5B
:10275000E6D10A6842F480620A603BE0012ADFD0D9
:102760000A6822F480620A600168DEE7042A11D058
:10277000022A0FD0102A0DD00C6844F400640C60BB
:1027800001684C698C6900940C6824F480640C60C6
:1027900008E025E00C6844F480640C6001684C6932
:1027A0008969009101684C68240517D5AA4207D0B1
:1027B000012A05D0082A03D0102A01D0202A0DD1E1
:1027C0004A6842F480524A6008E0FFE74A6842F4EF
:1027D00080524A6001684A6989690091036578BD41
:1027E00048698869009078BD0000FFFF90F83E10AE
:1027F000402910D00169B1F5804F19D0016DA9B3FE
:10280000016D012910D1416C5FF0F10201F44071BA
:1028100042EAD11106E0016D0029416C05D0C9B230
:1028200041F0010100680161704701F0FE01F9E724
:1028300090F83D102129416C09D0C9B241F0010145
:1028400002681161416B29B1896A49B902E001F05E
:10285000FE01F5E7816B0029E6D0896A0029E3D003
:102860000068416841F4006141607047FFE7416CD6
:10287000F02201F44071CBE710B590F83D10026DE5
:1028800022B3026D012A2FD0026D022A1DD1222906
:102890002FD0428D0AB1212933D0428D002A14D184
:1028A000212912D101684A6822F4E0624A60016875
:1028B0000A6842F400720A6000210163202280F855
:1028C0003D2080F83E10FEF714FD10BDC16C0129BB
:1028D000816C02D0C1F3072108E00268C9B211611E
:1028E000016D891C016510BD816CC9B2026811615E
:1028F00004E001680A6842F480720A60016D491CB4
:10290000F0E7416A026809781161416A491C416235
:10291000418D491E418510BD38B50C4690F83D20CB
:1029200000212825954302680B4605D0516991691D
:10293000009180F83C3038BD556825F480655560BD
:10294000E243540700D50121120601D5828900E037
:10295000028B80F83C3092B2FEF72FF938BD0000B0
:10296000F8B590F83D6004460068416821F4E061E4
:1029700041602068002541690091016841F0010132
:1029800001602068016821F480610160206841686D
:10299000090520D5474F222E48D02A2E46D0616BFC
:1029A000096849686185618D19B1216C41F00401A4
:1029B0002164416821F400614160606BFDF7EAFF2A
:1029C000012808D0606B4763606BFDF797FF10B17B
:1029D000606B416B8847608D08B320684169C943CB
:1029E000490708D40069616A0870606A401C606227
:1029F000608D401E608520684169C943490608D43E
:102A00000069616A0870606A401C6062608D401EE7
:102A10006085608D18B1206C40F004002064206C4B
:102A200000B32046BDE8F840FFF732BBA16B096850
:102A300049686185618D19B1216C41F004012164FF
:102A4000416821F400614160A06BFDF7A3FF0128FC
:102A5000C1D0A06B4763A06BFDF750FF0028BAD030
:102A6000A06BB6E72A2E06D12563282084F83D0006
:102A70002046FEF799FC94F83D10202028290DD01F
:102A8000216B222901D0222E07D1256384F83D0035
:102A900084F83E502046FEF787FCF8BD0649E16207
:102AA000256384F83D0084F83E502046FEF764FA22
:102AB000F8BD0000D51F00080000FFFF70B51646E6
:102AC0000D4604460DE02046FFF78EFB08B10120BD
:102AD00070BD681C05D0FEF769F8801BA84207D8B6
:102AE00035B120684069C0434007ECD4002070BD78
:102AF000002044F8300F20216173A073216941F058
:102B0000200121612073E2E72DE9F0471E4690463F
:102B10000D460446C1F30747DDF8209008E0701C1D
:102B200006D0FEF743F8A0EB0900B0420FD876B10B
:102B30002068012F18D0806925EA00000004000CED
:102B400014D000214145EAD00020BDE8F0870020E4
:102B500044F8300F20216173A073216941F02001F6
:102B6000216120730120F0E74069E5E70121E9E7F1
:102B70002DE9F0479A4691460E46044600254FF04F
:102B80002008C1F3074725E020684069C04340059D
:102B900014D42068016841F40071016021686FF469
:102BA00080604861256384F83D8084F83E50206C45
:102BB00040F00400206484F83C501FE0B9F1FF3F6E
:102BC00008D0FDF7F3FFA0EB0A0149450CD8B9F195
:102BD000000F09D02068012F13D0806926EA000079
:102BE0000004000C0BD0CFE744F8305F84F80D8070
:102BF000A573206940F02000206125730120BDE805
:102C0000F0874069EAE72DE9F041002590460E463D
:102C10000446202717E04069C043C0060CD454F88E
:102C2000301B6FF01000486144F810596777A577A2
:102C3000206A2062257717E0FDF7B8FFA0EB0800B7
:102C4000B04208D83EB120684169C9434906E2D480
:102C50000020BDE8F08144F8305F6773A5732069F8
:102C600040F02000206125730120F2E770B5164680
:102C70000D4604460DE02046FFF7B6FA08B10120E4
:102C800070BD681C05D0FDF791FF801BA84207D8D6
:102C900035B120684069C0430006ECD4002070BD07
:102CA000002044F8300F20216173A073216941F0A6
:102CB000200121612073E2E710B544F22F02802148
:102CC000104800F077F8052280210E4800F062F8E5
:102CD0004FF48064224680210A4800F07BF844F2D9
:102CE0006F128021084800F065F80522802106480F
:102CF00000F050F82246BDE810408021024800F064
:102D000069B8000050030020FC02002010B500F05C
:102D100005F8BDE8104001F017BB0000FEB50646FF
:102D20000CA00A2400680D46CDE90040012301AA49
:102D30003046FEF747FA022302AA2946304600949D
:102D4000FEF71EF908B1FF20FEBDBDF8080040BA2D
:102D5000FEBD000002000000FEB506460CA00A24DD
:102D600000680D46CDE90040012301AA3046FEF778
:102D700029FA022302AA294630460094FEF700F9F8
:102D800008B1FF20FEBDBDF8080040BAFEBD00003E
:102D9000010000001CB505238DF80430130A8DF8DE
:102DA00005308DF806200A220092032301AAFEF7BF
:102DB00009FA1CBD1CB500238DF80430130A8DF8E8
:102DC00005308DF806200A220092022301AAFEF7A0
:102DD000F9F91CBD1CB506238DF80430130A8DF8D3
:102DE00005308DF806200A220092032301AAFEF77F
:102DF000E9F91CBD70B580211C48FFF787FF01F081
:102E000077FA1B4D00222B4601F074F90022194B72
:102E100001F004F8184CC4E9000180211348FFF7C1
:102E20009BFF01F053F90022144B01F063F90022DB
:102E3000134B00F0F3FF134A134BC4E9020100F0F7
:102E4000EDFFD4E9002301F055F9C4E90601802122
:102E50000E48FFF75BFF01F04BFA00222B4601F012
:102E600049F904F12002C2E9000170BDFC02002012
:102E70000000F43F00408F40F003002000000440B9
:102E800080842E417B14AE47E17A743F50030020CA
:102E900010B500F069F9FDF77FFAFDF785FABDE896
:102EA0001040FDF7ABBA00000F4810B50D490160A6
:102EB0000421416000214FF440328160C0E90312D7
:102EC000120142610176012242768176C176017754
:102ED0004177FDF719FC002803D0BDE81040FDF74D
:102EE0009EBA10BD00640040D402002010B58EB020
:102EF0001C220B496846FDF7B3F90021684600F033
:102F0000CDFA084C06491C2220601C3107A8FDF7A9
:102F1000A7F9002107A800F0C1FA60600EB010BD4B
:102F2000FC430008000000202DE9F04186B0002598
:102F300025480095019502950395816941F020018E
:102F40008161816901F020010491816941F00401EE
:102F50008161816901F004010491816941F00801F6
:102F600081618069194F00F008000490002248F246
:102F700078013846FDF714FEDFF85480002208215E
:102F80004046FDF70DFE7820009001260224CDE991
:102F90000164694638460394FDF712FDA003CDE9AC
:102FA0000006CDE9025469463846FDF709FD0820C0
:102FB000CDE90006CDE9025469464046FDF700FD23
:102FC00006B0BDE8F081000000100240000801409A
:102FD000000C01400D4810B50B4901600C494160DF
:102FE00000214FF480428160C0E903124161816198
:102FF000C1610162FDF7FCFE002803D0BDE810406E
:10300000FDF70DBA10BD000000540040FC02002086
:10301000A08601000D4810B50B4901600C494160C4
:1030200000214FF480428160C0E903124161816157
:10303000C1610162FDF7DCFE002803D0BDE810404D
:10304000FDF7EDB910BD000000580040500300200E
:10305000A086010010B58EB000240794089409944E
:103060000A940B941C2168460C94FDF72BF91E481A
:103070001C4901604721C0E9011440F2E731C0E971
:1030800003148461FEF7E6FC08B1FDF7C8F94FF4BC
:103090008050079007A91448FEF750FD08B1FDF7CE
:1030A000BEF91148FEF708FF08B1FDF7B8F90B9417
:1030B0000BA90D480C94FEF799FC08B1FDF7AFF988
:1030C0006020CDE900040294002269460648049479
:1030D000FEF78FFE08B1FDF7A2F90348FEF74EFE9A
:1030E0000EB010BD00040040A4030020FEE7FEE780
:1030F00010B5FEF75BF900F0BDFD012803D0BDE877
:10310000104000F049BD10BD30B58FB02821684691
:10311000FDF7D8F814210AA8FDF7D4F80121080416
:10312000CDE900100024029402250491CDE9075056
:103130004FF4E01009906846FEF7B2FA08B172B693
:10314000FEE70F20CDE90A054FF48060CDE90C4081
:1031500002210AA80E94FEF7C7F9002801D072B622
:10316000FEE70FB030BD7047002208210148FDF78F
:1031700017BD0000000801400148FEF74BBD0000EC
:10318000A4030020F0B50268164B174C174D4FF002
:103190008047984205D0B84203D0A04201D0A8424F
:1031A00003D122F070064A683243984205D0B842F3
:1031B00003D0A04201D0A84203D122F44074CA68CF
:1031C00022434C6922F08002224302608A68C26274
:1031D0000A688262984201D1096901630121416153
:1031E000F0BD0000002C0140000400400008004039
:1031F00010B501F01F030121046A99408C43046259
:10320000016A9A401143016210BD10B5846842EA18
:10321000032224F47F440A432243826010BD826863
:1032200022F070020A4342F00701816070470000FB
:1032300030B5026A22F001020262026A43688469C0
:1032400024F073050C682C4322F002058A682A4397
:103250000A4DA8420BD122F00805CA6823F4407336
:103260002A434D6922F004021D438B692B434360BE
:10327000846149684163026230BD0000002C014056
:1032800030B5026A22F010020262026A4368846961
:103290000D6824F4E64444EA05248D6822F02002F7
:1032A00042EA05120B4DA8420ED1CD6822F08002F1
:1032B00042EA05124D6923F4406343EA85038D69B0
:1032C00022F0400243EA85034360846149688163D8
:1032D000026230BD002C014030B5026A22F48072D7
:1032E0000262036A4268C46923F4007324F0730520
:1032F0000C682C438D6843EA05230C4DA8420ED17F
:10330000CD6823F4006343EA05234D6922F440525B
:1033100042EA05128D6923F4806342EA0512426095
:10332000C4614968C163036230BD0000002C0140E4
:1033300030B5026A22F480520262046A4268C369AC
:103340000D6823F4E64343EA05238D6824F4005412
:1033500044EA0534064DA84204D14D6922F4804266
:1033600042EA85124260C36149680164046230BD6B
:10337000002C014010B5036A046A24F001040462C1
:10338000846924F0F00444EA021423F00A020A4398
:103390008461026210BD10B5036A23F0100303625A
:1033A0008369046A23F4704343EA023224F0A003E1
:1033B00043EA01118261016210BDFEE70907090EAF
:1033C000002804DB00F1E02080F80014704700F0D2
:1033D0000F0000F1E02080F8141D70470026154C06
:1033E0004FF4FA6501274FF4FA7840F2E7394FF4C9
:1033F0007A7A20684663FCF7F5FF2846FDF7CEFA97
:1034000020684763FCF7E0FF2846FDF7C7FA21680C
:10341000C1F834802846FDF7C1FA2168C1F834901C
:103420002846FDF7BBFA2168C1F834A02846FDF70D
:10343000B5FADEE7A4030020FFF7DCFCFCE70000A0
:1034400001884ABA03490A80428852BA4A80007900
:10345000C88070473C110020FDF7B0FFFFF754FE15
:10346000FFF762FDFFF7F6FDFFF71EFDFFF7B2FD68
:10347000FFF7D0FDFFF720FCFFF70AFDFFF736FD51
:1034800000F007F8FEE701460020842900D0C81CA0
:10349000704710B500F0C0FA002010BD7FB50D4692
:1034A00004464169B0F9080081B1A16971B1FFF723
:1034B000EAFFD4E905128DE80700D4E900102B4695
:1034C000226900F0ACFB039004B070BDFFF7DBFF96
:1034D00003A9CDE90001208A2B4682B2D4E900106D
:1034E00000F070FB012801D00020EDE70398EBE726
:1034F0002DE9F041054600F01BFA2E4C2069401CD6
:10350000206120682C4F10B1E06940B32DE02560A8
:103510002069012829D1002606EB860007EB8000F0
:1035200000F0ECF9761C072EF6D323488C3000F01F
:10353000E5F92148A03000F0E1F91F48B43000F06F
:10354000DDF91D48C83000F0D9F91B48DC3000F027
:10355000D5F919488C3060601430A06005E020680F
:10356000E96AC06A884200D82560E06A401CE062CF
:10357000E96A0120A26988401043A06101EB810043
:1035800007EB8000291D00F0C7F900F0F1F9E069B0
:1035900000280CD02068E96AC06A884207D207492F
:1035A0004FF080500860BFF34F8FBFF36F8FBDE8BF
:1035B000F0810000180000203004002004ED00E03D
:1035C00010B5044690F8510058B101280CD00228DB
:1035D0000FD0502080F31188BFF34F8FBFF36F8F50
:1035E000FEE7206B00F0D8F92046BDE8104000F05F
:1035F000D3B910BD10484FF44061420706D0C01D3A
:103600000D4920F00700411AC1F540610B4A002323
:103610000144C2E900030839103A21F007011160A2
:103620004B600B600B1AC0E9001393604FF0004031
:103630005360D06070470000200500206400002027
:10364000144E154CA6F1C8074FF08058DFF84C9087
:1036500012E000BF00F06CF9F068C568281D00F0AA
:103660002FF92069401E2061E068401EE06000F0F4
:103670007FF92846FFF7A4FFE0680028EAD1386800
:103680000128F9D9C9F80080BFF34F8FBFF36F8FBE
:10369000F2E70000F80400201800002004ED00E02C
:1036A0002DE9F0479A46DDE9098481466FF003036E
:1036B000206B03EB82021044089D20F00706700780
:1036C00007D0502080F31188BFF34F8FBFF36F8F67
:1036D000FEE723180A5C83F834200A5C12B1401C10
:1036E0001028F6D3002784F84370072D00D3062551
:1036F000E562C4E91157201D00F00BF904F1180030
:1037000000F007F92461C5F107006462A061E76475
:1037100084F8507052464946304600F0BFF82060A9
:10372000B8F1000F01D0C8F80040BDE8F0870000F4
:1037300030B5114900E011460A688242FBD34B685C
:103740005C18844203D140681844486008464368C6
:103750001C18944209D1084C103C2468A24209D09C
:1037600052681A4442600A6812680260814200D0BE
:10377000086030BD0460F9E7640000200648416835
:10378000096829B14168C968C96849680163704717
:103790004FF0FF31FAE700001800002008484068A9
:1037A000401C4FF0500080F3118804D0BFF34F8FBE
:1037B000BFF36F8FFEE7BFF34F8FBFF36F8FFEE74F
:1037C0006C0000202DE9F0410546002700F05AF971
:1037D000314E306808B9FFF70DFFF06805424BD154
:1037E000C5B3083568070ED005F00700C0F1080022
:1037F0000544680707D0502080F31188BFF34F8F2E
:10380000BFF36F8FFEE72DB37068854234D822482E
:10381000103001460C6801E020460C466168A94260
:1038200002D221680029F7D131688C4224D0076880
:103830002168016060680837411B10290FD96019A1
:10384000420708D0502080F31188BFF34F8FBFF399
:103850006F8FFEE710E041606560FFF769FF616808
:103860007068401A7060B268904200D2B060F06830
:1038700001430020C4E9000100F06EFA780707D088
:10388000502080F31188BFF34F8FBFF36F8FFEE797
:103890003846BDE8F08100005400002010B5031F39
:1038A0004FF080741C601B1F21F001011960191F6B
:1038B000024B0B60143940380A6010BD9D37000878
:1038C000D0E9013201699A60D0E901235A604A685F
:1038D000824201D182684A60002202610868401E6B
:1038E0000860086870470000034B036003F1540050
:1038F00008608020106070478000002000F10801FF
:103900004FF0FF32C0E90112C16001610021016086
:10391000704700210161704742684A6093688B607C
:1039200093685960916008610168491C01607047A3
:10393000502080F31188BFF34F8FBFF36F8F0A4978
:103940004868401C486001280CD10848006810F005
:10395000FF0F07D0502080F31188BFF34F8FBFF3C4
:103960006F8FFEE7704700006C00002004ED00E060
:103970000849486828B1401E486001D180F3118889
:103980007047502080F31188BFF34F8FBFF36F8FC4
:10399000FEE700006C00002070B5002827D0144D11
:1039A000A0F108046168E868014207D1502080F363
:1039B0001188BFF34F8FBFF36F8FFEE722683AB1D4
:1039C000502080F31188BFF34F8FBFF36F8FFEE756
:1039D0008143616000F056F8606869680844686077
:1039E0002046FFF7A5FEBDE8704000F0B5B970BDF8
:1039F000540000204FF0E020002101618161054961
:103A00004FF47A720968B1FBF2F1491E4161072156
:103A1000016170471400002010B586B000240394A3
:103A200005AA04A903A80494FFF75EFFDDE90301DA
:103A30000094CDE9011000230EA11048059A00F072
:103A4000EEF80F490028486311D0502080F3118808
:103A5000BFF34F8FBFF36F8F4FF0FF30086301202C
:103A6000C8614C6106B0BDE8104000F041B806B036
:103A700010BD000049444C450000000041360008DC
:103A8000180000200248816B491C816370470000C8
:103A9000180000201448816B11B101214162704768
:103AA000002141628169B1FA81F1C1F11F0101EB8D
:103AB00081020E4951F822306BB101EB820101F114
:103AC00008034A6852684A609A4201D152684A60C3
:103AD000D16801607047502080F31188BFF34F8F89
:103AE000BFF36F8FFEE700001800002030040020B5
:103AF0001CB5264908780190FF20087008788DF8D9
:103B000000009DF800009DF8002000F0F0009042B9
:103B100007D0502080F31188BFF34F8FBFF36F8F12
:103B2000FEE79DF800001A4B00F0500018700720C7
:103B3000986005E09DF8002052008DF80020401E9E
:103B40009DF800201206F5D49860032807D0502075
:103B500080F31188BFF34F8FBFF36F8FFEE74FF4F1
:103B600040709860019808700A48016841F470013B
:103B70000160016841F070410160FFF73BFF0020E8
:103B80005860FCF713FB00201CBD000000E400E0BF
:103B90006C00002020ED00E010B5502080F311886B
:103BA000BFF34F8FBFF36F8F00F072F818B1044965
:103BB0004FF080500860002080F3118810BD000095
:103BC00004ED00E02DE9FF5F8346DDE90E879946AD
:103BD00016468A469000FFF7F5FD05001CD05420DC
:103BE000FFF7F0FD040014D00020256384F8510095
:103BF000CDE90240CDE900874B4632465146584652
:103C0000FFF74EFD2046FFF773FC012004B0BDE82E
:103C1000F09F2846FFF7C0FE4FF0FF30F6E7F0B503
:103C200085B0DDE90B640A9DA6B1DCB1542700978D
:103C30002663022684F85160002604AFCDE90246CF
:103C4000CDE90057FFF72CFD2046FFF751FC049803
:103C500005B0F0BD502080F31188BFF34F8FBFF344
:103C60006F8FFEE7502080F31188BFF34F8FBFF3B3
:103C70006F8FFEE70548C16919B1806B18B100204C
:103C80007047012070470220704700001800002094
:103C90002DE9F0412E4C0027A06B40B1206A401C5A
:103CA0002062606A00B101273846BDE8F08166698C
:103CB000761C666113D16068006838B1502080F3CB
:103CC0001188BFF34F8FBFF36F8FFEE76068A16865
:103CD0006160A060A06A401CA062FFF74FFD206BEE
:103CE000DFF87080864209D36068006880B1606840
:103CF000C068C568686886420DD220632068C06AC3
:103D000000EB800158F821000128CAD90127C8E733
:103D10004FF0FF30F1E7281DFFF7D2FDA86A18B178
:103D200005F11800FFF7CCFDE86A0121A269814086
:103D30001143A16100EB800108EB8100291DFFF711
:103D4000EBFDE86A2168C96A8842CDD30127CBE739
:103D500018000020300400202DE9F0472C4D0024ED
:103D60002746A86B38B1FFF7E3FDA86B401EA86398
:103D7000A86B40B146E0502080F31188BFF34F8F0D
:103D8000BFF36F8FFEE72969224E0120D1B3A6F160
:103D9000B40980463068E8B1F068C46804F11800DE
:103DA000FFF78EFD201DFFF78BFDE06AAA6908FA78
:103DB00000F11143A96100EB800109EB8100211D95
:103DC000FFF7AAFDE06A2968C96A8842E2D3C5F80C
:103DD0002480DFE70CB1FFF7D1FC2C6A44B14646E2
:103DE000FFF756FF00B16E62641EF9D10020286211
:103DF000686A38B10849012738070860BFF34F8F58
:103E0000BFF36F8FFFF7B4FD3846BDE8F0870000C1
:103E100018000020E404002004ED00E02DE9C0417A
:103E200030B4DFF8A0C23CEA111418BF3CEA131406
:103E300000F0EC8081EA03051CEA111444EAD57411
:103E400018BF1CEA131500F0C780A4EB05044FF05F
:103E5000004545EAC12145EAC32341EA505143EAFE
:103E6000525304F17F74994204F500344FEAC020A4
:103E70004FEAC22208BF904200F09C804FEA1365CF
:103E80000FF24016765D4FEA134506FB05F7C7F1C2
:103E9000807706FB07F74FEAD737A7FB0368764220
:103EA000C8F58038A7FB06CE38BFA8F1010807FB8C
:103EB00008E64FF0000EA6FB028CE6FB03CEDCF119
:103EC000000CCEF1004E38BFAEF1010EA6FB0C582F
:103ED0004FF000074FF00005E6FB0E87A1FB08C678
:103EE000A0FB07CE16EB0E0645F10005E1FB0765CA
:103EF00015F1E04E7EBFA4F580345FEA46066D41C1
:103F000016F1800745F100054FEA17274FEA0666CC
:103F100047EA0567A6F1DE46B6F1805F4FEA152550
:103F20001FD9384624F0010C05EBC471BCF1FE6FBB
:103F300001EB0C1102D8F0BCBDE8008124425CBF4B
:103F400001F5801E9EEAC47F02D4F0BCBDE800816A
:103F5000244238D4F0BCA1F1C041BDE8004100F0DA
:103F6000C1B94FEAD22242EA43524FEAD323A7FB18
:103F700002864FEAD02040EA415007FB03661EEA62
:103F80000E0F4FEAD12105FB026658BFA6EB005683
:103F9000B6EB00564FEA520E4EEAC37E18EB0E0EF9
:103FA00056EB530EBDD518EB02085E417F1C55F150
:103FB0000005B6E74FF480154FF000074FF00006FC
:103FC0004FF00008ADE7F0BC4FF0000001F1C04138
:103FD00001F00041BDE8008111EA0C1F0CEA131545
:103FE00000D00CE013EA0C1F00F025804FF0000019
:103FF000F0BC81EA030101F00041BDE80081F0BCA2
:10400000BDE8004181EA030100F06CB9F0BCBDE8F5
:10401000004170B500F018F9097EFC3E00F007B8C9
:1040200081EA03014FF0000001F00041704781EA8E
:10403000030100F057B9F0BCBDE800414FF00000AB
:1040400021497047FFFDFBF9F7F5F4F2F0EEEDEBD7
:10405000E9E8E6E4E3E1E0DEDDDBDAD8D7D5D4D386
:10406000D1D0CFCDCCCBCAC8C7C6C5C4C2C1C0BFD2
:10407000BEBDBCBBBAB9B8B7B6B5B4B3B2B1B0AFD8
:10408000AEADACABAAA9A8A8A7A6A5A4A3A3A2A1BC
:10409000A09F9F9E9D9C9C9B9A9999989797969577
:1040A00095949393929191908F8F8E8E8D8C8C8B13
:1040B0008B8A89898888878786858584848383829B
:1040C000828181800000FF070000F87FB0FA80F352
:1040D00010FA03F10AD0C3F11D0303F580634FEA20
:1040E00041504FEA035202EBD12170474FF00000DC
:1040F00070470000DFF848C170B51CEA111E1EBFF2
:104100001CEA13159EEA0C0F95EA0C0F00F06F8065
:1041100081EA030423EA4C134EEAD47E21EA4C11CF
:1041200041F4801143F48013AE44A1FB024CA0FB88
:104130000365AEF17F7E361955EB0C05A1FB034CF0
:104140004CF10003A0FB021C16EB0C06654153F179
:104150000003094218BF46F0010613F4007F0BD19B
:104160004FEA03314FEA0530340341EA155140EA82
:1041700016506FF003020AE04FEAC3214FEAC52050
:10418000F40241EA555140EA56506FF0020202EB48
:104190002E4201EB025585EACE710AD05FEA440C4B
:1041A00018BF24F0004450F1000041F1000120EA62
:1041B000D47040F2FE7C624500D270BDA84214BFAC
:1041C0004FF080444FF04044002E08BF0024BEF161
:1041D000806FA8BFA1F1C041BDE8704080F282802D
:1041E0004FF0000001F1C04101F0004170479EEA2C
:1041F0000C0F0CEA131518BF95EA0C0F06D04FF000
:10420000000081EA030E0EF0004170BD00F01CF8C2
:104210008900013E00F007B800F009B84FEA430CEE
:104220005FEA5C5C08D081EA030100F05BB84FEA0A
:10423000410C5FEA5C5CF6D14FF000000149704729
:104240000000FF070000F87F0EF1020E2EF0030EB3
:104250005EF8046B364205D4012A43EB030515F5DD
:10426000001F12D8012841EB010C1CF5001F0CD8CF
:104270000ED14FEAD17C15F5001F0CEB4C0C0CF164
:10428000020C08BF4CEBD37C04E04FF0080C01E0BB
:104290004FEAD37C0CEB4C0526FA05F606F0070630
:1042A000B6F1040C06D20EEB860CBDE870404CF063
:1042B000010C6047DFE80CF0090B02024FF00041EF
:1042C0004FF00000A1F5002170BD194610460128ED
:1042D00051EB010418BFD4F5001484BF002001F095
:1042E000004170BD0808A0F500114FEA3101704788
:1042F00043004FEAD30C4FEA3C0C43401FBF40073A
:104300000CF1605113F0FE4F70471CF0006F03D1A9
:1043100000200CF0004170470CF0004343EA50705D
:1043200010B540EACC0000F022F800BF0000009277
:104330004FEA0001FFF7D6BF4FF000414FF00000F9
:10434000A1F5002170470000B0FA80F310FA03F2E3
:10435000C3F19D030AD0D90501EB1220530638BFE3
:10436000704700F1010008BF20F0010070470EF116
:10437000020E2EF0030E5EF8044B244204D44FEAE2
:104380004102B2F17F4F11D84FEA4003B3F17F4FA2
:104390000CD80ED14FEAD07CB2F17F4F0CEB4C0C15
:1043A0000CF1020C08BF4CEBD17C04E04FF0080C80
:1043B00001E04FEAD17C0CEB4C0324FA03F404F047
:1043C0000704B4F1040C06D20EEB840CBDE81040D7
:1043D0004CF0010C6047DFE80CF0070802024FF0D8
:1043E0000040A0F5800010BD0846420018BFD2F181
:1043F000807288BF00F0004010BD00004C440008EF
:1044000039340008020000000000000080000000B5
:10441000000000000000000058440008DD330008E0
:10442000020000000000000080000000000000000A
:104430000000000000000000000000000102030472
:10444000060708090000000001020304636F6D6D98
:10445000756E6963617465006361705F6374726C2B
:1044600000000000844400080000002080000000DC
:1044700028010008044500088000002040170000C3
:1044800044010008000000000000000001000000DE
:1044900010000000000000000024F40000000000F4
:1044A000000000000000000000000000000000000C
:1044B00000000000000000000000000000000000FC
:1044C00000000000000000000000000000000000EC
:1044D00000000000000000000000000000000000DC
:1044E00000000000000000000000000000000000CC
:1044F00000000000AAAAAAAA000000000000000014
:0445000000000000B7
:04000005080000ED02
:00000001FF
