:020000040800F2
:10000000D007002089010008F32500088B1900089B
:10001000F12500088F0200088F280008000000006A
:10002000000000000000000000000000F7250008AC
:100030009D02000800000000F5250008F9250008D1
:10004000A3010008A3010008A3010008A301000800
:10005000A3010008A3010008A3010008A3010008F0
:10006000A3010008A3010008A3010008A3010008E0
:10007000A3010008A3010008A3010008A3010008D0
:10008000A3010008A3010008A3010008A3010008C0
:10009000A301000891020008A3010008A3010008C1
:1000A000A3010008A3010008A3010008A3010008A0
:1000B0005D26000869260008A301000899190008B8
:1000C0008D190008B1190008A5190008A30100083E
:1000D000A3010008A3010008A3010008A301000870
:1000E000A3010008A3010008A301000800F002F822
:1000F00000F03AF80AA090E8000C82448344AAF188
:100100000107DA4501D100F02FF8AFF2090EBAE885
:100110000F0013F0010F18BFFB1A43F0010318473B
:10012000CC270000EC270000103A24BF78C878C123
:10013000FAD8520724BF30C830C144BF04680C60ED
:10014000704700000023002400250026103A28BF35
:1001500078C1FBD8520728BF30C148BF0B60704739
:100160001FB51FBD10B510BD00F058F81146FFF7C0
:10017000F7FF02F09DFB00F076F803B4FFF7F2FF03
:1001800003BC00F07DF8000009488047094800479B
:10019000FEE7FEE7FEE7FEE7FEE7FEE7FEE7FEE737
:1001A000FEE7FEE704480549054A064B7047000094
:1001B0005B260008ED000008D0010020D0070020D9
:1001C000D0030020D00300204FF0000200B51346FA
:1001D00094469646203922BFA0E80C50A0E80C5067
:1001E000B1F12001BFF4F7AF090728BFA0E80C5018
:1001F00048BF0CC05DF804EB890028BF40F8042B11
:1002000008BF704748BF20F8022B11F0804F18BF7D
:1002100000F8012B7047704770477047754600F033
:100220002BF8AE4605006946534620F00700854688
:1002300018B020B5FFF7B6FFBDE820404FF000062C
:100240004FF000074FF000084FF0000B21F00701BE
:10025000AC46ACE8C009ACE8C009ACE8C009ACE801
:10026000C0098D46704710B50446AFF300802046A4
:10027000BDE81040FFF781BF0048704770010020C3
:1002800001491820ABBEFEE7260002007047FEE7DA
:10029000014800F007B8000010000020704772B657
:1002A000FEE770472DE9F05F0546006800244669C7
:1002B000D0F804908768D0F80CB0D0F810A0D0F82F
:1002C0001880F10748D0F90714D001218160B807E0
:1002D00003D5284600F0C2F90CE0780702D54FF4A8
:1002E000006407E0380702D54FF4805402E0284646
:1002F00000F0B3F9F80516D529684FF480708860CE
:10030000B80503D5284600F0ABF90CE0780502D516
:1003100044F4005407E0380502D544F4804402E078
:10032000284600F09CF9F80316D529684FF4803070
:100330008860B80303D5284600F094F90CE07803F0
:1003400002D544F4004407E0380302D544F4803475
:1003500002E0284600F085F9300707D55FEACB6058
:1003600004D52968102044F40074C86070074FF069
:10037000080707D55FEA0B7004D52868C7602846D0
:1003800000F066F9B00706D52868C068800702D07B
:10039000284600F05EF9700607D55FEACA6004D50A
:1003A0002968102044F480640861B00607D55FEA2C
:1003B0000A7004D528680761284600F04BF9F0065A
:1003C00006D528680069800702D0284600F043F966
:1003D000B00308D55FEAC96005D5296810204860D8
:1003E000284600F039F9F00307D55FEA097004D513
:1003F00028684760284600F036F9300446D55FEAA1
:10040000497040D5F00504D55FEAC87001D044F0CA
:100410000104B00504D55FEA887001D544F00204F8
:10042000700504D55FEA487001D544F00404300536
:1004300029D518F0700F26D008F07000402815D08C
:1004400006DC102809D020280AD0302816D10AE06E
:1004500050280ED0602811D10EE044F008040DE0C1
:1004600044F010040AE044F0200407E044F04004A3
:1004700004E044F0800401E044F480742868816959
:1004800021F070018161296804204860002C05D0AA
:10049000686A204368622846FFF703FFBDE8F09FC3
:1004A00070B5040003D094F8200010B104E00120DE
:1004B00070BD204600F082F82068016841F001011B
:1004C000016000F017FA0546052604E000F012FA74
:1004D000401B0A2811D820684068C007F6D0206861
:1004E000016821F00201016000F004FA05460BE00A
:1004F00000F000FA401B0A2806D9606A40F4003078
:10050000606284F82060D2E7206840688007EFD4FA
:10051000207E0128206801683DD021F08001016023
:10052000607E01282068016838D021F04001016018
:10053000A07E01282068016833D021F020010160ED
:10054000E07E0128206801682ED041F01001016092
:10055000207F01282068016829D021F0080101606E
:10056000607F01282068016824D021F00401016027
:10057000D4E902010843D4E9041211430843616835
:10058000491E08432168C86100206062012084F888
:100590002000002070BD41F08001C0E741F0400123
:1005A000C5E741F02001CAE721F01001CFE741F093
:1005B0000801D4E741F00401D9E7000010B586B086
:1005C0000021009101910291039100681C49884229
:1005D00033D11C48C16941F00071C161C16901F0AA
:1005E00000710491816941F0080181618069164CB4
:1005F00000F0080004904FF4807000906946204697
:1006000000F082F860150090022001900320039012
:100610006946204600F078F80C48416821F4C04152
:1006200041F0E06141F48041416000221146152013
:1006300000F080FC152000F06FFC06B010BD00003B
:100640000064004000100240000C01400000014026
:1006500070477047704770477047704770477047E2
:10066000704770477047704710B590F8211000240C
:10067000022903D00421816301243DE001680A6856
:1006800022F00E020A6001680A6822F001020A6084
:100690001A4A0168914201D1012121E0174A14321E
:1006A000914201D110211BE0144A2832914201D11C
:1006B000891515E0114A3C32914201D189140FE0AD
:1006C0000E4A5032914202D14FF4803108E00B4A79
:1006D0006432914202D14FF4801101E04FF08071F9
:1006E000064A083A5160012180F82110002180F863
:1006F0002010416B01B18847204610BD0800024020
:1007000090F82100704700002DE9F84FDFF8B8910C
:10071000002409F1040A0AF1040B23460F270BF108
:10072000040EC9E00125A5402A40AA427DD1674EAA
:10073000D1F804C0ACEB0608B44532D014DCBCF1EF
:10074000030F3AD009DCBCF1000F2AD0BCF1010F35
:100750001CD0BCF1020F31D11DE0BCF1110F17D03C
:10076000BCF1120F2AD119E0B8F5881F19D006DCA8
:10077000B8F5803F15D0B8F5801F1FD111E0B8F54E
:10078000001F0ED0B8F5041F18D10AE0CB6815E0A1
:10079000CB681B1D12E0CB6808330FE0CB680C332D
:1007A0000CE08B682BB1012B4FF0080303D045619F
:1007B00004E0042302E0056100E00023FF2A01D8E1
:1007C000064601E000F104064FEA840501D9A5F1CF
:1007D0002005D6F8008007FA05FC28EA0C0803FA81
:1007E00005F548EA0508C6F800804D68ED0062D5B9
:1007F000374DAE6946F00106AE61AD6924F00306DF
:1008000005F001050095334D06EB050CDCF80850AA
:10081000A607360F07FA06F825EA0805DFF8B880BC
:10082000404503D14FF0000817E044E0DFF8AC800A
:10083000404502D14FF001080FE0DFF8A4804045A9
:1008400002D14FF0020808E0DFF89880404502D15D
:100850004FF0030801E04FF0040808FA06F848EAF0
:100860000508CCF808804D68D9F80060ED034D46C6
:1008700001D5164300E096432E604D68DAF800601B
:10088000AD03554601D5164300E096432E604D68F2
:10089000DBF80060ED025D4601D5164300E09643AB
:1008A0002E604D68DEF80060AD02754601D5164336
:1008B00000E096432E60641C0D682A46E5407FF4F4
:1008C00031AFBDE8F88F00000004014000001110B6
:1008D000001002400000014000080140000C0140EF
:1008E00000100140001401400AB101617047090481
:1008F000FBE700000148806870470000000000200E
:10090000704770472DE9F041016804464A694E6816
:1009100090F83E000025D743FA050BD4F243D205E8
:1009200008D46FF4807201254A6121680A6842F494
:1009300000420A60B90508D4F143C90505D422680C
:100940006FF4007145F002055161790525D4F1433A
:10095000C90522D4638D94F83D10226B202808D15C
:100960003BB9212910D029290ED0282901D1212ACB
:100970000AD022686FF48061516145F004051028A7
:1009800006D0402804D008E0204601F003FC04E033
:100990002068016841F400710160380508D4F04313
:1009A000C00505D421686FF4006045F00805486172
:1009B000002D07D0206C284320642046BDE8F0417C
:1009C00001F05AB8BDE8F0812DE9F0470268002136
:1009D0005368C66A90F83E4090F83D50102C12D0F3
:1009E000402C10D0046C002C7DD05469E443A60741
:1009F0007AD4DE43B60577D4036C03B19169BDE8C0
:100A0000F04701F0A3BB976951694FF42A0CC94321
:100A10005FEAC1784FF02A4904D066452AD04E4596
:100A200028D010E0DE43B6050DD4C16A614501D17E
:100A3000012103E0C16A494501D10821C162BDE835
:100A4000F04701F0EDBA0E0716D4DE43B60513D415
:100A5000416CC9B21161416B09B1896A29B9816BD5
:100A6000002907D0896A002904D00068416841F450
:100A700000614160BDE8F0878E0706D4DE43B6050D
:100A800003D4BDE8F04701F01FBAFE435268760771
:100A90004FEA02521DD4002AECDB0A0608D4DA43DE
:100AA000520505D4490705D5BDE8F04701F0B0B9B6
:100AB0004907DFD4D9438905DCD4212D05D0402C4A
:100AC000D8D1BDE8F04701F0F1BABDE8F04701F038
:100AD0005DB9002ACEDB4A060BD4DA43520508D4AE
:100AE000490708D501E00DE00EE0BDE8F04701F050
:100AF000D9B84907BED4D9438905BBD4BDE8F0476E
:100B000001F066B8916970E7E10606D4D94389051A
:100B100003D4BDE8F04701F07FBB2821212D27D069
:100B2000292D25D0650655D4DD436D0552D46407C3
:100B300052D590F83D30448D002C9BD01269446A08
:100B40002270426A521C4262428D521E4285428D80
:100B5000002A8FD12A2B8DD10268536823F4806339
:100B600053602222026380F83D1000F07BF981E798
:100B7000250623D4DD436D0520D4640720D590F8E5
:100B80003D30448D002CF2D0446A24781461426ACE
:100B9000521C4262428D521E4285428D002AE6D18D
:100BA000292BE4D10268536823F480635360212227
:100BB000026380F83D1000F056F95BE76107D6D478
:100BC000D9438905D3D4418D0029D0D0416A097811
:100BD00011610AE06107CAD4D9438905C7D4418DA0
:100BE0000029C4D01169426A1170416A491C4162EE
:100BF000418D491E41853DE77047000070B50400F6
:100C000025D094F83D00002520B984F83C502046BA
:100C100000F0BEF8242084F83D002068016821F02F
:100C2000010101602068016841F400410160206811
:100C3000016821F40041016000F044FA4D4A616806
:100C4000914201D84C4900E04C49884201D2012030
:100C500070BD4B492368B0FBF1F15E6826F03F069A
:100C60000E435E606368934206D94FF4967359430E
:100C70004FF47A73B1FBF3F12368491C1E6A26F026
:100C80003F06314319626168914210D84900401E05
:100C9000B0FBF1F2521CC2F30B02042A01D2042071
:100CA00022E0B0FBF1F0401CC0F30B001CE0A26896
:100CB000F2B301EBC10303EB0116431EB3FBF6F3E2
:100CC0005B1C43F480431B0549D092B301EBC10286
:100CD00002EB0111401EB0FBF1F0401CC0F30B0011
:100CE00040F4804040F400402168CA694CF6FF732C
:100CF0009A431043C861D4E9071001432068026891
:100D000022F0C00211430160D4E9030101432068CD
:100D1000826848F2FF339A4311438160D4E90501A8
:100D200008432168CA6822F0FF021043C86001E04E
:100D30000EE016E02068016841F0010101602564C1
:100D4000202084F83D00256384F83E50002070BDCB
:100D500001EB4106431EB3FBF6F35B1CB3E7012036
:100D6000C2E701EB4101401EB0FBF1F0401CC0F3B3
:100D70000B00B7E7A086010080841E0000093D003B
:100D800040420F007047704770477047704700003F
:100D900030B585B0002100910191029103912D4D54
:100DA00003682D4C122103222C48AB4225D1A369A4
:100DB00043F00803A361A369039203F008030493BB
:100DC000C023CDE900316946FFF79EFCE06940F49D
:100DD0000010E061E069002200F400100490114668
:100DE0001F2000F0A7F81F2000F096F800221146FF
:100DF000202000F09FF8202028E0194DAB4227D199
:100E0000A36943F00803A361A369039203F00803F5
:100E100004934FF44063CDE900316946FFF774FC59
:100E2000E06940F48000E061E069002200F48000A5
:100E300004901146212000F07DF8212000F06CF88C
:100E400000221146222000F075F8222000F064F8FC
:100E500005B030BD0054004000100240000C0140BD
:100E6000005800407047704702488168027811447A
:100E70008160704700000020074810B5016841F00C
:100E800010010160032000F075F80F2000F006F853
:100E900000F024F8002010BD0020024070B50D4D78
:100EA00004464FF47A712878B1FBF0F00A490968DA
:100EB000B1FBF0F000F0DCFA48B9102C07D20022A8
:100EC0002146501E00F036F800206C6070BD0120F5
:100ED00070BD0000000000200C0000200C4808B588
:100EE000816941F001018161816901F00101009195
:100EF000C16941F08051C161C06900F0805000902B
:100F00000448416821F0E06141F00071416008BD92
:100F10000010024000000140002809DB00F01F0221
:100F2000012191404009800000F1E020C0F800114B
:100F300070470000F0B40E4B1B680C46C3F302234D
:100F4000C3F10705042D00D90425191D072901D275
:100F5000002300E0DB1E012606FA05F1491E2140B0
:100F600099409E40761E16403143F0BC01F090BC83
:100F70000CED00E0064900F0070208684FF6FF0399
:100F8000184040EA0220034A1043086070470000FE
:100F90000CED00E00000FA052DE9F0470F460500D2
:100FA00061D0434E306800F00700B84209D2306883
:100FB00020F0070038433060306800F00700B84286
:100FC00051D128683B4C810712D5400703D5606892
:100FD00040F4E06060602878000703D5606840F462
:100FE000605060606068A96820F0F00008436060AD
:100FF0002878C00728D06868012810D02168022806
:1010000010D0890700292EDA616821F0030101431D
:101010006160FFF76FFC804641F288390DE021687E
:101020008903EFE78901EDE7FFF764FCA0EB080116
:10103000494502D90320BDE8F0876068696800F07F
:101040000C00B0EB810FEFD1306800F00700B84220
:101050000BD9306820F0070038433060306800F06A
:101060000700B84201D00120E5E72878400705D500
:101070006068E96820F4E060084360602878000751
:1010800006D56068296920F4605040EAC1006060BC
:1010900000F028F86168084AC1F30311515CC840A8
:1010A0000649086006480068FFF7F8FE0020C2E71E
:1010B0000020024000100240D22800080C0000204E
:1010C000040000200448054900684968044AC1F347
:1010D0000221515CC84070470C0000200010024003
:1010E000E228000812A185B00FC98DE80F0014A0F6
:1010F000144A006804905168134801F00C03042B53
:1011000010D0082B0ED1C1F38343C9031DF803008F
:101110000AD5516804AAC1F34041515C0A4A5043C0
:10112000B0FBF1F005B0704708494843FAE700000A
:1011300002030405060708090A0B0C0D0E0F101018
:10114000010200000010024000127A0000093D0078
:101150002DE9F84F040070D02078C04DC00749D069
:101160006868C0F38100012807D06868C0F3810077
:10117000022809D16868C00306D52868800339D5DC
:1011800060680028E7D035E06068B0F5803F0BD09C
:1011900010B1B0F5A02F11D0286820F4803028605D
:1011A000286820F4802002E0286840F4803028601D
:1011B000606890B1FFF79EFB06460AE0286840F49D
:1011C00080202860F0E700BFFFF794FB801B6428B5
:1011D00073D828688003F7D50CE0FFF78BFB064631
:1011E00005E000BFFFF786FB801B6428F0D8286865
:1011F0008003F7D420789A4E80074FF001094FF012
:10120000000839D5686810F00C0F07D06868C0F383
:101210008100022809D16868C00306D428688007C5
:1012200014D52069012808D110E02069B0B1C6F8B2
:101230000090FFF75FFB074605E00AE1FFF75AFB66
:10124000C01B0228C4D828688007F7D528686169C0
:1012500020F0F80040EAC10028600DE0C6F80080E8
:10126000FFF748FB074604E0FFF744FBC01B0228DA
:1012700023D828688007F7D4207800072CD5794830
:10128000A169D9B1C0F80090FFF734FB074604E02C
:10129000FFF730FBC01B02280FD8686A8007F7D51C
:1012A00071484FF4FA510068B0FBF1F0009000BFB4
:1012B0000098411E0091FAD20EE080E0C0F8008054
:1012C000FFF718FB074604E0FFF714FBC01B0228DA
:1012D00075D8686A8007F7D42078400760D5E86938
:1012E0000027C00008D4E86940F08050E861E86950
:1012F000012700F0805000905C480168C90513D4B4
:101300000168834641F480710160FFF7F3FA824679
:1013100006E000BFFFF7EEFAA0EB0A0064284ED803
:10132000DBF80000C005F5D5E06801280AD008B157
:10133000052813D0286A20F001002862286A20F0CE
:10134000040002E0286A40F001002862E06841F2EF
:10135000883B98B1FFF7CEFA82460BE0286A40F04E
:1013600004002862EEE700BFFFF7C4FAA0EB0A0111
:1013700059455AD8286A8007F6D50CE0FFF7BAFA23
:10138000824605E0FFF7B6FAA0EB0A0159454CD8B2
:10139000286A8007F6D41FB1E86920F08050E86120
:1013A000E06988B36968C1F38101022944D0022849
:1013B000C6F8608004D0FFF79DFA044638E034E0B8
:1013C000FFF798FA074604E0FFF794FAC01B0228DB
:1013D0002BD828688001F7D4206AB0F5803F05D16A
:1013E0006868A16820F4003008436860D4E9080107
:1013F0000843696821F4741108436860C6F8609076
:10140000FFF778FA044606E025E000BFFFF772FA1E
:10141000001B022809D828688001F7D51BE000BF0F
:10142000FFF768FA001B022802D90320BDE8F88FF5
:1014300028688001F4D40EE00128F7D06868226A99
:1014400000F48031914204D1616A00F47010884246
:1014500001D00120EAE70020E8E700000010024088
:1014600000004242800442420C0000200070004014
:1014700010B5401EB0F1807F01D3012010BD4FF0A8
:10148000E02460610F21601701F002FA0020A061E2
:1014900007202061002010BD7047704770B590F89C
:1014A0003C20012A26D0012480F83C40022280F80A
:1014B0003D2003685A689D6822F070060A6832432E
:1014C0005A600D4B02689A4208D0B2F1804F05D0A5
:1014D0000A4B9A4202D00A4B9A4204D1496825F03D
:1014E00080031943916080F83D40002180F83C1052
:1014F000084670BD022070BD002C01400004004071
:101500000008004010B5040003D094F83D0010B16D
:1015100007E0012010BD002084F83C00204600F0C8
:101520001FF8022084F83D00211D206801F0A2F878
:10153000012084F8460084F83E0084F83F0084F8D7
:10154000400084F8410084F8420084F8430084F8A5
:10155000440084F8450084F83D00002010BD0000E0
:1015600008B501681448B1F1804F14D0134A914274
:1015700020D1C16941F00201C161C069002200F0BF
:101580000200009011461D20FFF7D4FC1D20BDE88D
:101590000840FFF7C1BCC16941F00101C161C069E8
:1015A000002200F00100009011461C20FFF7C2FC51
:1015B0001C20ECE708BD00000010024000040040C1
:1015C00070B5044690F83C00012817D0012584F836
:1015D0003C50022084F83D002068826822F07702A7
:1015E00022F47F4282600868502830D00DDC202829
:1015F0004DD005DC98B310283BD148E0022070BDE7
:10160000302844D0402834D139E0602828D07028D0
:1016100006D0B0F5805F2CD0B0F5005F29D10AE08C
:10162000CB68D1E90121206801F05AF8206881686F
:1016300041F0770109E0CB68D1E90121206801F090
:101640004FF82068816841F48041816011E0CA68E8
:101650004968206801F0F8F85021206807E016E09A
:10166000CA684968206801F000F96021206801F02B
:1016700041F884F83D50002084F83C0070BDCA68F1
:101680004968206801F0E0F840212068EFE722680F
:1016900001461046EBE7704770B5044600680169E3
:1016A0004FF00005C943890715D4C168C9438907AC
:1016B00011D4E91E0161012020772068806980072C
:1016C000204602D0FFF7E7FF04E000F0C9F820460B
:1016D00000F058F9257720680169C943490717D4F4
:1016E000C168C943490713D46FF0040101610220A6
:1016F00020772068806910F4407F204602D0FFF7F1
:10170000CAFF04E000F0ACF8204600F03BF9257772
:1017100020680169C943090716D4C168C94309078C
:1017200012D46FF008010161042020772068C0699D
:101730008007204602D0FFF7AEFF04E000F090F8EB
:10174000204600F01FF9257720680169C943C906C2
:1017500017D4C168C943C90613D46FF010010161E1
:10176000082020772068C06910F4407F204602D00E
:10177000FFF791FF04E000F073F8204600F002F953
:10178000257720680169C943C90708D1C168C943E1
:10179000C90704D1891E0161204600F0F4F82068D1
:1017A0000169C943090609D4C168C943090605D4BA
:1017B0006FF0800101612046FFF76EFE206801692D
:1017C000C943490609D4C168C943490605D46FF025
:1017D00040010161204600F0D7F820680169C94343
:1017E00089060BD4C168C943890607D46FF020016C
:1017F00001612046BDE87040FFF74FBE70BD00009C
:1018000000B585B00021009101910291039100681B
:101810000F4988421AD10F48816941F0080181615E
:101820008069694600F00800049030200090022092
:10183000019003900848FEF767FF0848416821F4CB
:10184000406141F0E06141F40061416005B000BDDC
:101850000004004000100240000C01400000014064
:10186000704770B5044690F83C000D4601280AD038
:10187000012084F83C0042B1042A18D0082A2AD05A
:101880000C2A4DD139E0022070BD206800F03AFFEB
:101890002068816941F0080181612068816921F037
:1018A00004018161206881692A69114311E020687F
:1018B00000F050FF2068816941F400618161206877
:1018C000816921F480618161206881692A6941EA26
:1018D0000221816124E0206800F068FF2068C1696E
:1018E00041F00801C1612068C16921F00401C161B2
:1018F0002068C1692A69114311E0206800F082FF65
:101900002068C16941F40061C1612068C16921F4A6
:101910008061C1612068C1692A6941EA0221C1610F
:10192000002084F83C0070BD10B5040003D094F88A
:101930003D0010B107E0012010BD002084F83C00FC
:10194000204600F01EF8022084F83D00211D20688A
:1019500000F090FE012084F8460084F83E0084F8F0
:101960003F0084F8400084F8410084F8420084F885
:10197000430084F8440084F8450084F83D000020CA
:1019800010BD7047704770477047FEE70148FEF78B
:10199000B9BF0000380000200148FFF715B800006B
:1019A000380000200148FEF7ADBF00008C00002089
:1019B0000148FFF709B800008C00002038B5406AE4
:1019C000002190F83D202B4B46F2A8141B68B3FB76
:1019D000F4F3C3EBC30303EB830300933BB15B1E40
:1019E000009303681B689B0505D5009BF6E7036C15
:1019F00043F020030364436B03B19962836B03B12B
:101A0000996203681C6824F480641C604185436B00
:101A100003B15963836B03B1596303681C6824F0F5
:101A200001041C6090F83D402023602C0BD028243A
:101A300034EA02020FD080F83D3080F83E1000BF3B
:101A4000FFF7DAF838BD80F83D3080F83E100164C9
:101A5000FEF756FF38BD0268136843F001031360B8
:101A60000268136843F480631360016380F83D40AB
:101A7000E6E700000C00002070B5044690F83D0039
:101A800094F83E10102901D0402906D1222804D113
:101A900021680A6822F400620A60282131EA000203
:101AA0004FF000054FF0200626D02168496809054F
:101AB00005D4602803D084F83D6084F83E50256347
:101AC00020684168090537D5416821F4006141600B
:101AD000606B3D4990F82120012A11D04163606B71
:101AE000FEF7C2FD38B32068016821F001010160F2
:101AF00084F83D60606B1CE0256384F83D10DFE7EF
:101B0000A06B4163A06BFEF7AFFDA0B120684169F7
:101B1000C943490605D40069616A0870606A401CBF
:101B200060622068016821F00101016084F83D6075
:101B3000A06B416B884710E094F83D10602910D0ED
:101B40004169C943490605D40069616A0870606A41
:101B5000401C60622046FFF74FF8206CC1071CD183
:101B600015E084F83D6025644169C943490605D400
:101B70000069616A0870606A401C606220680168E0
:101B800021F0010101602046FEF7BAFEE5E781077A
:101B900003D4410701D4000704D52068416821F42B
:101BA000E061416094F83D00216C49070BD528287D
:101BB00009D10648E062256384F83D6084F83E5010
:101BC0002046FFF7DFF870BDBD1900080000FFFFD9
:101BD00010B5C26A438D0168042B06D0438D032BD8
:101BE00008D0438D022B1DD012E04A6822F4806297
:101BF0004A600CE04B6823F480634B60042A06D0F3
:101C0000022A04D001680A6822F480620A6001682E
:101C10000969426A1170416A491C4162418D491E3D
:101C2000418510BD012A30D0102A2ED0042A30D090
:101C3000022A2ED00A6842F400720A60016809691B
:101C4000426A1170416A491C4162428D521E4285AE
:101C5000026812690A70416A491C4162418D491E3D
:101C6000418501684A6822F440724A60202180F868
:101C70003D1090F83E200021402A80F83E100CD004
:101C800012210163FFF77FF810BD0A6822F4806219
:101C9000D3E70A6842F48062CFE70163FFF775F883
:101CA00010BD000038B590F83D10222914D1418DA7
:101CB000032912D901680969426A1170416A491CF5
:101CC0004162418D491E4185418D032904D100683F
:101CD000416821F48061416038BDC26A022AFBD0AC
:101CE000012901D00029F7D1274946F2A813002283
:101CF0000968B1FBF3F101EB810100910168202338
:101D0000009C641E009422D00C68A405F8D40C68D2
:101D100024F480640C6001684C6824F4E0644C6036
:101D200001680969446A2170416A491C4162418D18
:101D3000491E418580F83D3090F83E1080F83E20E5
:101D400040291DD012210163FFF71DF838BD046C36
:101D500044F0200404644C6824F4E0644C6001689E
:101D60000969446A2170416A491C4162418D491EDA
:101D7000418580F83D3080F83E20FEF73DFF38BDBC
:101D80000263FFF702F838BD0C00002010B5C26AEC
:101D900090F83D1021290BD1418D51B1416A026863
:101DA00009781161416A491C4162418D491E418592
:101DB00010BD20230021082A13D0202A11D012F5AB
:101DC000803F0ED00268546824F4E064546011220D
:101DD000026380F83E1080F83D3000BFFEF7D4FF6C
:101DE00010BD0268546824F4E0645460026814680A
:101DF00044F400741460016380F83D3090F83E2094
:101E000080F83E10402AE9D1FEF7C0FF10BD000067
:101E100010B590F83D1090F83E30C26A048DB4B110
:101E2000212903D0402B11D122290FD1418DE1B3BB
:101E300090F83E10402942D0416A02680978116149
:101E4000416A491C4162418D491E418510BD2129CD
:101E5000E8D120230021082A13D0202A11D012F51E
:101E6000803F0ED00268546824F4E064546011226C
:101E7000026380F83E1080F83D3000BFFEF784FF1B
:101E800010BD0268546824F4E06454600268146869
:101E900044F400741460016380F83D3090F83E20F3
:101EA00080F83E10402AE9D100E002E0FEF76EFF24
:101EB00010BD0068416821F48061416010BDBDE83B
:101EC000104000F0F3B8000078B590F83E50C26AB8
:101ED000046B90F83D6000230168222E73D1066DDB
:101EE0000EB9402D6FD0056D1DB90569B5F5404F90
:101EF0001BD0458D95B3468D484D012E20D0448D85
:101F0000022C4DD00C6844F480640C6001684C686D
:101F1000240579D5AA4273D0012A71D0082A6FD03E
:101F2000102A6DD0202A6BD06EE04A698A6900922F
:101F30000A6842F480720A60016D491C016578BD2F
:101F4000AA4214D10A6822F480620A6001684A68D1
:101F5000120504D50A6822F4806217E0FFE74A6997
:101F60008A6900920A6842F400720A6050E0082A06
:101F700010D0202A0ED0122C0AD0042A03D0022A14
:101F800001D0102AE6D10A6842F480620A603BE080
:101F9000012ADFD00A6822F480620A600168DEE765
:101FA000042A11D0022A0FD0102A0DD00C6844F454
:101FB00000640C6001684C698C6900940C6824F41E
:101FC00080640C6008E025E00C6844F480640C60D8
:101FD00001684C698969009101684C68240517D52E
:101FE000AA4207D0012A05D0082A03D0102A01D01E
:101FF000202A0DD14A6842F480524A6008E0FFE787
:102000004A6842F480524A6001684A6989690091CD
:10201000036578BD48698869009078BD0000FFFFBE
:1020200090F83E10402910D00169B1F5804F19D0C9
:10203000016DA9B3016D012910D1416C5FF0F1026E
:1020400001F4407142EAD11106E0016D0029416CB2
:1020500005D0C9B241F0010100680161704701F08B
:10206000FE01F9E790F83D102129416C09D0C9B271
:1020700041F0010102681161416B29B1896A49B9D6
:1020800002E001F0FE01F5E7816B0029E6D0896AE4
:102090000029E3D00068416841F400614160704765
:1020A000FFE7416CF02201F44071CBE710B590F8E6
:1020B0003D10026D22B3026D012A2FD0026D022A5B
:1020C0001DD122292FD0428D0AB1212933D0428D32
:1020D000002A14D1212912D101684A6822F4E06251
:1020E0004A6001680A6842F400720A6000210163D4
:1020F000202280F83D2080F83E10FEF747FE10BDFC
:10210000C16C0129816C02D0C1F3072108E002688B
:10211000C9B21161016D891C016510BD816CC9B224
:102120000268116104E001680A6842F480720A6082
:10213000016D491CF0E7416A026809781161416A42
:10214000491C4162418D491E418510BD38B50C4680
:1021500090F83D2000212825954302680B4605D0C4
:1021600051699169009180F83C3038BD556825F47B
:1021700080655560E243540700D50121120601D560
:10218000828900E0028B80F83C3092B2FEF7B9FB06
:1021900038BD00002DE9F04190F83D40C26A0023AF
:1021A00020261C4F01686FF48065082A01D0202A80
:1021B00001D1282C04D0212C16D04D61BDE8F0812E
:1021C000C7624A6822F4E0624A6001684D610168B2
:1021D0000A6822F480620A60036380F83D6080F838
:1021E0003E30FEF7CFFDE9E7C7622122026380F8A7
:1021F0003D6080F83E304A6822F4E0624A6001683F
:102200004D6101680A6822F480620A60FEF72BFEC5
:10221000D4E700000000FFFFF8B590F83D600446E9
:102220000068416821F4E06141602068002541694F
:102230000091016841F0010101602068016821F40A
:102240008061016020684168090520D5474F222E32
:1022500048D02A2E46D0616B096849686185618D36
:1022600019B1216C41F004012164416821F400613D
:102270004160606BFEF744FA012808D0606B476349
:10228000606BFEF7F1F910B1606B416B8847608DB0
:1022900008B320684169C943490708D40069616AE5
:1022A0000870606A401C6062608D401E6085206816
:1022B0004169C943490608D40069616A0870606AC7
:1022C000401C6062608D401E6085608D18B1206C7E
:1022D00040F004002064206C00B32046BDE8F840C4
:1022E000FFF7CABBA16B096849686185618D19B1A7
:1022F000216C41F004012164416821F400614160D6
:10230000A06BFEF7FDF90128C1D0A06B4763A06B5D
:10231000FEF7AAF90028BAD0A06BB6E72A2E06D19C
:102320002563282084F83D002046FEF79BFD94F8A5
:102330003D10202028290DD0216B222901D0222EEA
:1023400007D1256384F83D0084F83E502046FEF70F
:1023500089FDF8BD0649E162256384F83D0084F8F3
:102360003E502046FEF70EFDF8BD0000BD190008E6
:102370000000FFFF0F4810B50D49016004214160C6
:1023800000214FF440328160C0E903121201426122
:102390000176012242768176C17601774177FEF798
:1023A0007FF8002803D0BDE81040FDF778BF10BDCE
:1023B00000640040100000202DE9F04186B00025A7
:1023C00025480095019502950395816941F020010A
:1023D0008161816901F020010491816941F004016A
:1023E0008161816901F004010491816941F0080172
:1023F00081618069194F00F008000490002248F2C2
:1024000078013846FEF770FADFF854800022082180
:102410004046FEF769FA7820009001260224CDE9B3
:102420000164694638460394FEF76EF9A003CDE9CE
:102430000006CDE9025469463846FEF765F90820E2
:10244000CDE90006CDE9025469464046FEF75CF945
:1024500006B0BDE8F0810000001002400008014015
:10246000000C01400D4810B50B4901600C4941605A
:1024700000214FF480428160C0E903124161816113
:10248000C1610162FEF7BAFB002803D0BDE810402D
:10249000FDF705BF10BD00000054004038000020CB
:1024A000A08601000D4810B50B4901600C49416040
:1024B00000214FF480428160C0E9031241618161D3
:1024C000C1610162FEF79AFB002803D0BDE810400D
:1024D000FDF7E5BE10BD0000005800408C00002054
:1024E000A086010010B586B000241648009401941F
:1024F0000294039404944FF080410594C0E90014C1
:102500004FF6FF71C0E9024104618461FEF7FAFFF2
:1025100008B1FDF7C4FE4FF48050009069460948A9
:10252000FFF74EF808B1FDF7BAFE049404A9054878
:102530000594FEF7B3FF002801D0FDF7B0FE06B00A
:1025400010BD0000E000002010B58EB000240794FC
:10255000089409940A940B941C2168460C94FDF786
:1025600033FE2248204901604721C0E9011440F2AE
:10257000E731C0E903148461FEF7C4FF08B1FDF739
:102580008EFE4FF48050079007A91848FFF718F8FF
:1025900008B1FDF784FE1548FFF7C6F908B1FDF74D
:1025A0007EFE0B940BA911480C94FEF777FF08B13F
:1025B000FDF775FE6020CDE9000402940022694613
:1025C0000A480494FFF74DF908B1FDF768FE0422AC
:1025D00069460648FFF745F908B1FDF760FE034874
:1025E000FFF70EF90EB010BD0004004028010020D6
:1025F000FEE7FEE770477047FEF736BC30B58FB098
:1026000028216846FDF7E0FD14210AA8FDF7DCFD4E
:1026100001210804CDE90010002402940225049150
:10262000CDE907504FF4E01009906846FEF790FDA1
:1026300008B172B6FEE70F20CDE90A054FF48060BD
:10264000CDE90C4002210AA80E94FEF7A5FC002853
:1026500001D072B6FEE70FB030BD70470148FFF7FA
:102660001BB80000E00000200148FFF715B800008B
:1026700028010020F0B50268164B174C174D4FF09B
:102680008047984205D0B84203D0A04201D0A8426A
:1026900003D122F070064A683243984205D0B8420E
:1026A00003D0A04201D0A84203D122F44074CA68EA
:1026B00022434C6922F08002224302608A68C2628F
:1026C0000A688262984201D109690163012141616E
:1026D000F0BD0000002C0140000400400008004054
:1026E00010B5846842EA032224F47F440A4322435B
:1026F000826010BD826822F070020A4342F0070136
:102700008160704730B5026A22F001020262026AFB
:102710004368846924F073050C682C4322F0020599
:102720008A682A430A4DA8420BD122F00805CA68DC
:1027300023F440732A434D6922F004021D438B6940
:102740002B434360846149684163026230BD0000ED
:10275000002C014030B5026A22F010020262026AC7
:10276000436884690D6824F4E64444EA05248D68CE
:1027700022F0200242EA05120B4DA8420ED1CD688C
:1027800022F0800242EA05124D6923F4406343EAD5
:1027900085038D6922F0400243EA8503436084612A
:1027A00049688163026230BD002C014030B5026A85
:1027B00022F480720262036A4268C46923F40073DF
:1027C00024F073050C682C438D6843EA05230C4DF7
:1027D000A8420ED1CD6823F4006343EA05234D6976
:1027E00022F4405242EA05128D6923F4806342EAE2
:1027F00005124260C4614968C163036230BD0000D4
:10280000002C014030B5026A22F480520262046A50
:102810004268C3690D6823F4E64343EA05238D68E3
:1028200024F4005444EA0534064DA84204D14D690D
:1028300022F4804242EA85124260C3614968016421
:10284000046230BD002C014010B5036A046A24F014
:1028500001040462846924F0F00444EA021423F0C1
:102860000A020A438461026210BD10B5036A23F0B4
:10287000100303628369046A23F4704343EA02325B
:1028800024F0A00343EA01118261016210BDFEE75A
:102890000907090E002804DB00F1E02080F800148D
:1028A000704700F00F0000F1E02080F8141D704721
:1028B000FEF7E2FAFFF7A2FEFFF77EFDFFF75AFDF3
:1028C000FFF7D0FDFFF7EEFDFFF70CFEFFF73CFE34
:1028D000FEE70000000000000000010203040607FC
:1028E0000809000000000102030400000C29000890
:1028F0000000002010000000280100081C2900082A
:1029000010000020C0070000440100080100000082
:0C29100010000000000000000024F40093
:04000005080000ED02
:00000001FF
